{"contracts/XVerification.sol":{"XVerification":{"abi":[{"inputs":[{"internalType":"address","name":"_fdcHubAddress","type":"address"},{"internalType":"address","name":"_fdcVerificationAddress","type":"address"}],"stateMutability":"nonpayable","type":"constructor"},{"inputs":[{"internalType":"address","name":"owner","type":"address"}],"name":"OwnableInvalidOwner","type":"error"},{"inputs":[{"internalType":"address","name":"account","type":"address"}],"name":"OwnableUnauthorizedAccount","type":"error"},{"anonymous":false,"inputs":[{"indexed":true,"internalType":"address","name":"previousOwner","type":"address"},{"indexed":true,"internalType":"address","name":"newOwner","type":"address"}],"name":"OwnershipTransferred","type":"event"},{"anonymous":false,"inputs":[{"indexed":true,"internalType":"address","name":"user","type":"address"},{"indexed":false,"internalType":"string","name":"twitterId","type":"string"},{"indexed":false,"internalType":"string","name":"tweetId","type":"string"}],"name":"UserVerified","type":"event"},{"anonymous":false,"inputs":[{"indexed":true,"internalType":"address","name":"user","type":"address"},{"indexed":false,"internalType":"string","name":"tweetId","type":"string"},{"indexed":false,"internalType":"bytes32","name":"requestId","type":"bytes32"}],"name":"VerificationRequested","type":"event"},{"inputs":[],"name":"WEB2JSON_ATTESTATION_TYPE","outputs":[{"internalType":"bytes32","name":"","type":"bytes32"}],"stateMutability":"view","type":"function"},{"inputs":[],"name":"fdcHub","outputs":[{"internalType":"contract IFdcHub","name":"","type":"address"}],"stateMutability":"view","type":"function"},{"inputs":[],"name":"fdcVerification","outputs":[{"internalType":"contract IFdcVerification","name":"","type":"address"}],"stateMutability":"view","type":"function"},{"inputs":[{"internalType":"address","name":"user","type":"address"}],"name":"getUserTwitterId","outputs":[{"internalType":"string","name":"","type":"string"}],"stateMutability":"view","type":"function"},{"inputs":[{"internalType":"address","name":"user","type":"address"}],"name":"isUserVerified","outputs":[{"internalType":"bool","name":"","type":"bool"}],"stateMutability":"view","type":"function"},{"inputs":[],"name":"owner","outputs":[{"internalType":"address","name":"","type":"address"}],"stateMutability":"view","type":"function"},{"inputs":[],"name":"renounceOwnership","outputs":[],"stateMutability":"nonpayable","type":"function"},{"inputs":[{"internalType":"bytes32","name":"","type":"bytes32"}],"name":"requestIdToTweetId","outputs":[{"internalType":"string","name":"","type":"string"}],"stateMutability":"view","type":"function"},{"inputs":[{"internalType":"bytes32","name":"","type":"bytes32"}],"name":"requestIdToUser","outputs":[{"internalType":"address","name":"","type":"address"}],"stateMutability":"view","type":"function"},{"inputs":[{"internalType":"string","name":"tweetId","type":"string"},{"internalType":"string","name":"expectedTwitterId","type":"string"}],"name":"requestVerification","outputs":[],"stateMutability":"payable","type":"function"},{"inputs":[],"name":"restrictedFunction","outputs":[{"internalType":"string","name":"","type":"string"}],"stateMutability":"view","type":"function"},{"inputs":[],"name":"revokeVerification","outputs":[],"stateMutability":"nonpayable","type":"function"},{"inputs":[{"internalType":"bytes32","name":"requestId","type":"bytes32"},{"components":[{"internalType":"bytes32[]","name":"merkleProof","type":"bytes32[]"},{"components":[{"internalType":"bytes32","name":"attestationType","type":"bytes32"},{"internalType":"bytes32","name":"sourceId","type":"bytes32"},{"internalType":"uint64","name":"votingRound","type":"uint64"},{"internalType":"uint64","name":"lowestUsedTimestamp","type":"uint64"},{"components":[{"internalType":"string","name":"url","type":"string"},{"internalType":"string","name":"httpMethod","type":"string"},{"internalType":"string","name":"headers","type":"string"},{"internalType":"string","name":"queryParams","type":"string"},{"internalType":"string","name":"body","type":"string"},{"internalType":"string","name":"postProcessJq","type":"string"},{"internalType":"string","name":"abiSignature","type":"string"}],"internalType":"struct IWeb2Json.RequestBody","name":"requestBody","type":"tuple"},{"components":[{"internalType":"bytes","name":"abiEncodedData","type":"bytes"}],"internalType":"struct IWeb2Json.ResponseBody","name":"responseBody","type":"tuple"}],"internalType":"struct IWeb2Json.Response","name":"data","type":"tuple"}],"internalType":"struct IWeb2Json.Proof","name":"proof","type":"tuple"}],"name":"submitVerification","outputs":[],"stateMutability":"nonpayable","type":"function"},{"inputs":[{"internalType":"address","name":"newOwner","type":"address"}],"name":"transferOwnership","outputs":[],"stateMutability":"nonpayable","type":"function"},{"inputs":[{"internalType":"address","name":"","type":"address"}],"name":"userTwitterIds","outputs":[{"internalType":"string","name":"","type":"string"}],"stateMutability":"view","type":"function"},{"inputs":[{"internalType":"address","name":"","type":"address"}],"name":"verifiedUsers","outputs":[{"internalType":"bool","name":"","type":"bool"}],"stateMutability":"view","type":"function"}],"evm":{"bytecode":{"linkReferences":{},"object":"60806040523480156200001157600080fd5b5060405162002e5738038062002e57833981810160405281019062000037919062000277565b33600073ffffffffffffffffffffffffffffffffffffffff168173ffffffffffffffffffffffffffffffffffffffff1603620000ad5760006040517f1e4fbdf7000000000000000000000000000000000000000000000000000000008152600401620000a49190620002cf565b60405180910390fd5b620000be816200014960201b60201c565b5081600160006101000a81548173ffffffffffffffffffffffffffffffffffffffff021916908373ffffffffffffffffffffffffffffffffffffffff16021790555080600260006101000a81548173ffffffffffffffffffffffffffffffffffffffff021916908373ffffffffffffffffffffffffffffffffffffffff1602179055505050620002ec565b60008060009054906101000a900473ffffffffffffffffffffffffffffffffffffffff169050816000806101000a81548173ffffffffffffffffffffffffffffffffffffffff021916908373ffffffffffffffffffffffffffffffffffffffff1602179055508173ffffffffffffffffffffffffffffffffffffffff168173ffffffffffffffffffffffffffffffffffffffff167f8be0079c531659141344cd1fd0a4f28419497f9722a3daafe3b4186f6b6457e060405160405180910390a35050565b600080fd5b600073ffffffffffffffffffffffffffffffffffffffff82169050919050565b60006200023f8262000212565b9050919050565b620002518162000232565b81146200025d57600080fd5b50565b600081519050620002718162000246565b92915050565b600080604083850312156200029157620002906200020d565b5b6000620002a18582860162000260565b9250506020620002b48582860162000260565b9150509250929050565b620002c98162000232565b82525050565b6000602082019050620002e66000830184620002be565b92915050565b612b5b80620002fc6000396000f3fe6080604052600436106100f35760003560e01c80638010fcaf1161008a578063cc2125bb11610059578063cc2125bb146102f9578063d539cb9914610336578063e35fe36614610373578063f2fde38b146103b0576100f3565b80638010fcaf1461024f5780638da5cb5b1461027a578063ace417e0146102a5578063c33dc916146102e2576100f3565b806342fe69d4116100c657806342fe69d4146101b45780634de2bfbf146101f1578063715018a61461020d578063777acf3714610224576100f3565b80631687d9a6146100f85780631d738726146101215780631dd6aec21461015e5780633ad6d51614610189575b600080fd5b34801561010457600080fd5b5061011f600480360381019061011a9190611540565b6103d9565b005b34801561012d57600080fd5b506101486004803603810190610143919061159c565b6108a8565b6040516101559190611659565b60405180910390f35b34801561016a57600080fd5b50610173610948565b604051610180919061168a565b60405180910390f35b34801561019557600080fd5b5061019e61096c565b6040516101ab9190611724565b60405180910390f35b3480156101c057600080fd5b506101db60048036038101906101d6919061177d565b610992565b6040516101e89190611659565b60405180910390f35b61020b600480360381019061020691906118df565b610aef565b005b34801561021957600080fd5b50610222610ece565b005b34801561023057600080fd5b50610239610ee2565b6040516102469190611659565b60405180910390f35b34801561025b57600080fd5b50610264610fd3565b6040516102719190611978565b60405180910390f35b34801561028657600080fd5b5061028f610ff9565b60405161029c91906119a2565b60405180910390f35b3480156102b157600080fd5b506102cc60048036038101906102c7919061177d565b611022565b6040516102d991906119d8565b60405180910390f35b3480156102ee57600080fd5b506102f7611078565b005b34801561030557600080fd5b50610320600480360381019061031b919061177d565b6111a9565b60405161032d9190611659565b60405180910390f35b34801561034257600080fd5b5061035d6004803603810190610358919061159c565b611249565b60405161036a91906119a2565b60405180910390f35b34801561037f57600080fd5b5061039a6004803603810190610395919061177d565b61127c565b6040516103a791906119d8565b60405180910390f35b3480156103bc57600080fd5b506103d760048036038101906103d2919061177d565b61129c565b005b600073ffffffffffffffffffffffffffffffffffffffff166005600084815260200190815260200160002060009054906101000a900473ffffffffffffffffffffffffffffffffffffffff1673ffffffffffffffffffffffffffffffffffffffff160361047b576040517f08c379a000000000000000000000000000000000000000000000000000000000815260040161047290611a3f565b60405180910390fd5b60006005600084815260200190815260200160002060009054906101000a900473ffffffffffffffffffffffffffffffffffffffff16905060006006600085815260200190815260200160002080546104d390611a8e565b80601f01602080910402602001604051908101604052809291908181526020018280546104ff90611a8e565b801561054c5780601f106105215761010080835404028352916020019161054c565b820191906000526020600020905b81548152906001019060200180831161052f57829003601f168201915b50505050509050600260009054906101000a900473ffffffffffffffffffffffffffffffffffffffff1673ffffffffffffffffffffffffffffffffffffffff1663d2d3a41f846040518263ffffffff1660e01b81526004016105ae9190612048565b602060405180830381865afa1580156105cb573d6000803e3d6000fd5b505050506040513d601f19601f820116820180604052508101906105ef9190612096565b61062e576040517f08c379a00000000000000000000000000000000000000000000000000000000081526004016106259061210f565b60405180910390fd5b7f576562324a736f6e00000000000000000000000000000000000000000000000083806020019061065f919061213e565b60000135146106a3576040517f08c379a000000000000000000000000000000000000000000000000000000000815260040161069a906121b2565b60405180910390fd5b7f54574954544552000000000000000000000000000000000000000000000000008380602001906106d4919061213e565b6020013514610718576040517f08c379a000000000000000000000000000000000000000000000000000000000815260040161070f9061221e565b60405180910390fd5b600083806020019061072a919061213e565b8060a00190610739919061223e565b80600001906107489190612266565b81019061075591906122c9565b90506001600360008573ffffffffffffffffffffffffffffffffffffffff1673ffffffffffffffffffffffffffffffffffffffff16815260200190815260200160002060006101000a81548160ff02191690831515021790555080600460008573ffffffffffffffffffffffffffffffffffffffff1673ffffffffffffffffffffffffffffffffffffffff16815260200190815260200160002090816107fb91906124be565b506005600086815260200190815260200160002060006101000a81549073ffffffffffffffffffffffffffffffffffffffff02191690556006600086815260200190815260200160002060006108519190611475565b8273ffffffffffffffffffffffffffffffffffffffff167f7ab730b5bfb557c288ba21debe408ddcecccf1f6788ee7ec8015a5e0da5d12278284604051610899929190612590565b60405180910390a25050505050565b600660205280600052604060002060009150905080546108c790611a8e565b80601f01602080910402602001604051908101604052809291908181526020018280546108f390611a8e565b80156109405780601f1061091557610100808354040283529160200191610940565b820191906000526020600020905b81548152906001019060200180831161092357829003601f168201915b505050505081565b7f576562324a736f6e00000000000000000000000000000000000000000000000081565b600260009054906101000a900473ffffffffffffffffffffffffffffffffffffffff1681565b6060600360008373ffffffffffffffffffffffffffffffffffffffff1673ffffffffffffffffffffffffffffffffffffffff16815260200190815260200160002060009054906101000a900460ff16610a20576040517f08c379a0000000000000000000000000000000000000000000000000000000008152600401610a1790612613565b60405180910390fd5b600460008373ffffffffffffffffffffffffffffffffffffffff1673ffffffffffffffffffffffffffffffffffffffff1681526020019081526020016000208054610a6a90611a8e565b80601f0160208091040260200160405190810160405280929190818152602001828054610a9690611a8e565b8015610ae35780601f10610ab857610100808354040283529160200191610ae3565b820191906000526020600020905b815481529060010190602001808311610ac657829003601f168201915b50505050509050919050565b600082604051602001610b029190612707565b604051602081830303815290604052905060006040518060e001604052808381526020016040518060400160405280600381526020017f474554000000000000000000000000000000000000000000000000000000000081525081526020016040518060400160405280600281526020017f7b7d00000000000000000000000000000000000000000000000000000000000081525081526020016040518060400160405280600281526020017f7b7d00000000000000000000000000000000000000000000000000000000000081525081526020016040518060400160405280600281526020017f7b7d00000000000000000000000000000000000000000000000000000000000081525081526020016040518060400160405280600f81526020017f2e646174612e617574686f725f6964000000000000000000000000000000000081525081526020016040518060400160405280600881526020017f28737472696e67290000000000000000000000000000000000000000000000008152508152509050600083604051602001610c9b9190611659565b6040516020818303038152906040529050600081805190602001209050600060405180608001604052807f576562324a736f6e00000000000000000000000000000000000000000000000081526020017f54574954544552000000000000000000000000000000000000000000000000008152602001838152602001858152509050600081604051602001610d309190612896565b6040516020818303038152906040529050600160009054906101000a900473ffffffffffffffffffffffffffffffffffffffff1673ffffffffffffffffffffffffffffffffffffffff16636238f35434836040518363ffffffff1660e01b8152600401610d9d919061290d565b6000604051808303818588803b158015610db657600080fd5b505af1158015610dca573d6000803e3d6000fd5b5050505050600033898942604051602001610de89493929190612998565b604051602081830303815290604052805190602001209050336005600083815260200190815260200160002060006101000a81548173ffffffffffffffffffffffffffffffffffffffff021916908373ffffffffffffffffffffffffffffffffffffffff16021790555088600660008381526020019081526020016000209081610e7291906124be565b503373ffffffffffffffffffffffffffffffffffffffff167fc0390ab7b80f1315d9163b445f9c820e10af211bcd0f65a5084496fe57ac46438a83604051610ebb9291906129de565b60405180910390a2505050505050505050565b610ed6611322565b610ee060006113a9565b565b6060600360003373ffffffffffffffffffffffffffffffffffffffff1673ffffffffffffffffffffffffffffffffffffffff16815260200190815260200160002060009054906101000a900460ff16610f70576040517f08c379a0000000000000000000000000000000000000000000000000000000008152600401610f6790612613565b60405180910390fd5b600460003373ffffffffffffffffffffffffffffffffffffffff1673ffffffffffffffffffffffffffffffffffffffff168152602001908152602001600020604051602001610fbf9190612b03565b604051602081830303815290604052905090565b600160009054906101000a900473ffffffffffffffffffffffffffffffffffffffff1681565b60008060009054906101000a900473ffffffffffffffffffffffffffffffffffffffff16905090565b6000600360008373ffffffffffffffffffffffffffffffffffffffff1673ffffffffffffffffffffffffffffffffffffffff16815260200190815260200160002060009054906101000a900460ff169050919050565b600360003373ffffffffffffffffffffffffffffffffffffffff1673ffffffffffffffffffffffffffffffffffffffff16815260200190815260200160002060009054906101000a900460ff16611104576040517f08c379a00000000000000000000000000000000000000000000000000000000081526004016110fb90612613565b60405180910390fd5b6000600360003373ffffffffffffffffffffffffffffffffffffffff1673ffffffffffffffffffffffffffffffffffffffff16815260200190815260200160002060006101000a81548160ff021916908315150217905550600460003373ffffffffffffffffffffffffffffffffffffffff1673ffffffffffffffffffffffffffffffffffffffff16815260200190815260200160002060006111a79190611475565b565b600460205280600052604060002060009150905080546111c890611a8e565b80601f01602080910402602001604051908101604052809291908181526020018280546111f490611a8e565b80156112415780601f1061121657610100808354040283529160200191611241565b820191906000526020600020905b81548152906001019060200180831161122457829003601f168201915b505050505081565b60056020528060005260406000206000915054906101000a900473ffffffffffffffffffffffffffffffffffffffff1681565b60036020528060005260406000206000915054906101000a900460ff1681565b6112a4611322565b600073ffffffffffffffffffffffffffffffffffffffff168173ffffffffffffffffffffffffffffffffffffffff16036113165760006040517f1e4fbdf700000000000000000000000000000000000000000000000000000000815260040161130d91906119a2565b60405180910390fd5b61131f816113a9565b50565b61132a61146d565b73ffffffffffffffffffffffffffffffffffffffff16611348610ff9565b73ffffffffffffffffffffffffffffffffffffffff16146113a75761136b61146d565b6040517f118cdaa700000000000000000000000000000000000000000000000000000000815260040161139e91906119a2565b60405180910390fd5b565b60008060009054906101000a900473ffffffffffffffffffffffffffffffffffffffff169050816000806101000a81548173ffffffffffffffffffffffffffffffffffffffff021916908373ffffffffffffffffffffffffffffffffffffffff1602179055508173ffffffffffffffffffffffffffffffffffffffff168173ffffffffffffffffffffffffffffffffffffffff167f8be0079c531659141344cd1fd0a4f28419497f9722a3daafe3b4186f6b6457e060405160405180910390a35050565b600033905090565b50805461148190611a8e565b6000825580601f1061149357506114b2565b601f0160209004906000526020600020908101906114b191906114b5565b5b50565b5b808211156114ce5760008160009055506001016114b6565b5090565b6000604051905090565b600080fd5b600080fd5b6000819050919050565b6114f9816114e6565b811461150457600080fd5b50565b600081359050611516816114f0565b92915050565b600080fd5b6000604082840312156115375761153661151c565b5b81905092915050565b60008060408385031215611557576115566114dc565b5b600061156585828601611507565b925050602083013567ffffffffffffffff811115611586576115856114e1565b5b61159285828601611521565b9150509250929050565b6000602082840312156115b2576115b16114dc565b5b60006115c084828501611507565b91505092915050565b600081519050919050565b600082825260208201905092915050565b60005b838110156116035780820151818401526020810190506115e8565b60008484015250505050565b6000601f19601f8301169050919050565b600061162b826115c9565b61163581856115d4565b93506116458185602086016115e5565b61164e8161160f565b840191505092915050565b600060208201905081810360008301526116738184611620565b905092915050565b611684816114e6565b82525050565b600060208201905061169f600083018461167b565b92915050565b600073ffffffffffffffffffffffffffffffffffffffff82169050919050565b6000819050919050565b60006116ea6116e56116e0846116a5565b6116c5565b6116a5565b9050919050565b60006116fc826116cf565b9050919050565b600061170e826116f1565b9050919050565b61171e81611703565b82525050565b60006020820190506117396000830184611715565b92915050565b600061174a826116a5565b9050919050565b61175a8161173f565b811461176557600080fd5b50565b60008135905061177781611751565b92915050565b600060208284031215611793576117926114dc565b5b60006117a184828501611768565b91505092915050565b600080fd5b600080fd5b7f4e487b7100000000000000000000000000000000000000000000000000000000600052604160045260246000fd5b6117ec8261160f565b810181811067ffffffffffffffff8211171561180b5761180a6117b4565b5b80604052505050565b600061181e6114d2565b905061182a82826117e3565b919050565b600067ffffffffffffffff82111561184a576118496117b4565b5b6118538261160f565b9050602081019050919050565b82818337600083830152505050565b600061188261187d8461182f565b611814565b90508281526020810184848401111561189e5761189d6117af565b5b6118a9848285611860565b509392505050565b600082601f8301126118c6576118c56117aa565b5b81356118d684826020860161186f565b91505092915050565b600080604083850312156118f6576118f56114dc565b5b600083013567ffffffffffffffff811115611914576119136114e1565b5b611920858286016118b1565b925050602083013567ffffffffffffffff811115611941576119406114e1565b5b61194d858286016118b1565b9150509250929050565b6000611962826116f1565b9050919050565b61197281611957565b82525050565b600060208201905061198d6000830184611969565b92915050565b61199c8161173f565b82525050565b60006020820190506119b76000830184611993565b92915050565b60008115159050919050565b6119d2816119bd565b82525050565b60006020820190506119ed60008301846119c9565b92915050565b7f496e76616c696420726571756573742049440000000000000000000000000000600082015250565b6000611a296012836115d4565b9150611a34826119f3565b602082019050919050565b60006020820190508181036000830152611a5881611a1c565b9050919050565b7f4e487b7100000000000000000000000000000000000000000000000000000000600052602260045260246000fd5b60006002820490506001821680611aa657607f821691505b602082108103611ab957611ab8611a5f565b5b50919050565b600080fd5b600080fd5b600080fd5b60008083356001602003843603038112611aeb57611aea611ac9565b5b83810192508235915060208301925067ffffffffffffffff821115611b1357611b12611abf565b5b602082023603831315611b2957611b28611ac4565b5b509250929050565b600082825260208201905092915050565b600080fd5b82818337505050565b6000611b5c8385611b31565b93507f07ffffffffffffffffffffffffffffffffffffffffffffffffffffffffffffff831115611b8f57611b8e611b42565b5b602083029250611ba0838584611b47565b82840190509392505050565b60008235600160c003833603038112611bc857611bc7611ac9565b5b82810191505092915050565b6000611be36020840184611507565b905092915050565b611bf4816114e6565b82525050565b600067ffffffffffffffff82169050919050565b611c1781611bfa565b8114611c2257600080fd5b50565b600081359050611c3481611c0e565b92915050565b6000611c496020840184611c25565b905092915050565b611c5a81611bfa565b82525050565b60008235600160e003833603038112611c7c57611c7b611ac9565b5b82810191505092915050565b60008083356001602003843603038112611ca557611ca4611ac9565b5b83810192508235915060208301925067ffffffffffffffff821115611ccd57611ccc611abf565b5b600182023603831315611ce357611ce2611ac4565b5b509250929050565b600082825260208201905092915050565b6000611d088385611ceb565b9350611d15838584611860565b611d1e8361160f565b840190509392505050565b600060e08301611d3c6000840184611c88565b8583036000870152611d4f838284611cfc565b92505050611d606020840184611c88565b8583036020870152611d73838284611cfc565b92505050611d846040840184611c88565b8583036040870152611d97838284611cfc565b92505050611da86060840184611c88565b8583036060870152611dbb838284611cfc565b92505050611dcc6080840184611c88565b8583036080870152611ddf838284611cfc565b92505050611df060a0840184611c88565b85830360a0870152611e03838284611cfc565b92505050611e1460c0840184611c88565b85830360c0870152611e27838284611cfc565b925050508091505092915050565b600082356001602003833603038112611e5157611e50611ac9565b5b82810191505092915050565b60008083356001602003843603038112611e7a57611e79611ac9565b5b83810192508235915060208301925067ffffffffffffffff821115611ea257611ea1611abf565b5b600182023603831315611eb857611eb7611ac4565b5b509250929050565b600082825260208201905092915050565b6000611edd8385611ec0565b9350611eea838584611860565b611ef38361160f565b840190509392505050565b600060208301611f116000840184611e5d565b8583036000870152611f24838284611ed1565b925050508091505092915050565b600060c08301611f456000840184611bd4565b611f526000860182611beb565b50611f606020840184611bd4565b611f6d6020860182611beb565b50611f7b6040840184611c3a565b611f886040860182611c51565b50611f966060840184611c3a565b611fa36060860182611c51565b50611fb16080840184611c60565b8482036080860152611fc38282611d29565b915050611fd360a0840184611e35565b84820360a0860152611fe58282611efe565b9150508091505092915050565b6000604083016120056000840184611ace565b8583036000870152612018838284611b50565b925050506120296020840184611bac565b848203602086015261203b8282611f32565b9150508091505092915050565b600060208201905081810360008301526120628184611ff2565b905092915050565b612073816119bd565b811461207e57600080fd5b50565b6000815190506120908161206a565b92915050565b6000602082840312156120ac576120ab6114dc565b5b60006120ba84828501612081565b91505092915050565b7f46444320766572696669636174696f6e206661696c6564000000000000000000600082015250565b60006120f96017836115d4565b9150612104826120c3565b602082019050919050565b60006020820190508181036000830152612128816120ec565b9050919050565b600080fd5b600080fd5b600080fd5b60008235600160c00383360303811261215a5761215961212f565b5b80830191505092915050565b7f57726f6e67206174746573746174696f6e207479706500000000000000000000600082015250565b600061219c6016836115d4565b91506121a782612166565b602082019050919050565b600060208201905081810360008301526121cb8161218f565b9050919050565b7f57726f6e6720736f757263652049440000000000000000000000000000000000600082015250565b6000612208600f836115d4565b9150612213826121d2565b602082019050919050565b60006020820190508181036000830152612237816121fb565b9050919050565b60008235600160200383360303811261225a5761225961212f565b5b80830191505092915050565b600080833560016020038436030381126122835761228261212f565b5b80840192508235915067ffffffffffffffff8211156122a5576122a4612134565b5b6020830192506001820236038313156122c1576122c0612139565b5b509250929050565b6000602082840312156122df576122de6114dc565b5b600082013567ffffffffffffffff8111156122fd576122fc6114e1565b5b612309848285016118b1565b91505092915050565b60008190508160005260206000209050919050565b60006020601f8301049050919050565b600082821b905092915050565b6000600883026123747fffffffffffffffffffffffffffffffffffffffffffffffffffffffffffffffff82612337565b61237e8683612337565b95508019841693508086168417925050509392505050565b6000819050919050565b60006123bb6123b66123b184612396565b6116c5565b612396565b9050919050565b6000819050919050565b6123d5836123a0565b6123e96123e1826123c2565b848454612344565b825550505050565b600090565b6123fe6123f1565b6124098184846123cc565b505050565b5b8181101561242d576124226000826123f6565b60018101905061240f565b5050565b601f8211156124725761244381612312565b61244c84612327565b8101602085101561245b578190505b61246f61246785612327565b83018261240e565b50505b505050565b600082821c905092915050565b600061249560001984600802612477565b1980831691505092915050565b60006124ae8383612484565b9150826002028217905092915050565b6124c7826115c9565b67ffffffffffffffff8111156124e0576124df6117b4565b5b6124ea8254611a8e565b6124f5828285612431565b600060209050601f8311600181146125285760008415612516578287015190505b61252085826124a2565b865550612588565b601f19841661253686612312565b60005b8281101561255e57848901518255600182019150602085019450602081019050612539565b8683101561257b5784890151612577601f891682612484565b8355505b6001600288020188555050505b505050505050565b600060408201905081810360008301526125aa8185611620565b905081810360208301526125be8184611620565b90509392505050565b7f55736572206e6f74207665726966696564000000000000000000000000000000600082015250565b60006125fd6011836115d4565b9150612608826125c7565b602082019050919050565b6000602082019050818103600083015261262c816125f0565b9050919050565b600081905092915050565b7f68747470733a2f2f6170692e782e636f6d2f322f7477656574732f0000000000600082015250565b6000612674601b83612633565b915061267f8261263e565b601b82019050919050565b6000612695826115c9565b61269f8185612633565b93506126af8185602086016115e5565b80840191505092915050565b7f3f74776565742e6669656c64733d617574686f725f6964000000000000000000600082015250565b60006126f1601783612633565b91506126fc826126bb565b601782019050919050565b600061271282612667565b915061271e828461268a565b9150612729826126e4565b915081905092915050565b600061273f826115c9565b6127498185611ceb565b93506127598185602086016115e5565b6127628161160f565b840191505092915050565b600060e083016000830151848203600086015261278a8282612734565b915050602083015184820360208601526127a48282612734565b915050604083015184820360408601526127be8282612734565b915050606083015184820360608601526127d88282612734565b915050608083015184820360808601526127f28282612734565b91505060a083015184820360a086015261280c8282612734565b91505060c083015184820360c08601526128268282612734565b9150508091505092915050565b600060808301600083015161284b6000860182611beb565b50602083015161285e6020860182611beb565b5060408301516128716040860182611beb565b5060608301518482036060860152612889828261276d565b9150508091505092915050565b600060208201905081810360008301526128b08184612833565b905092915050565b600081519050919050565b600082825260208201905092915050565b60006128df826128b8565b6128e981856128c3565b93506128f98185602086016115e5565b6129028161160f565b840191505092915050565b6000602082019050818103600083015261292781846128d4565b905092915050565b60008160601b9050919050565b60006129478261292f565b9050919050565b60006129598261293c565b9050919050565b61297161296c8261173f565b61294e565b82525050565b6000819050919050565b61299261298d82612396565b612977565b82525050565b60006129a48287612960565b6014820191506129b4828661268a565b91506129c0828561268a565b91506129cc8284612981565b60208201915081905095945050505050565b600060408201905081810360008301526129f88185611620565b9050612a07602083018461167b565b9392505050565b7f416363657373206772616e7465642120596f757220547769747465722049443a60008201527f2000000000000000000000000000000000000000000000000000000000000000602082015250565b6000612a6a602183612633565b9150612a7582612a0e565b602182019050919050565b60008154612a8d81611a8e565b612a978186612633565b94506001821660008114612ab25760018114612ac757612afa565b60ff1983168652811515820286019350612afa565b612ad085612312565b60005b83811015612af257815481890152600182019150602081019050612ad3565b838801955050505b50505092915050565b6000612b0e82612a5d565b9150612b1a8284612a80565b91508190509291505056fea264697066735822122052191a05d98fd196a70ad2fa7d1aa7f8cf0b1c1852c859a00f9d342f55bf411264736f6c63430008140033","opcodes":"PUSH1 0x80 PUSH1 0x40 MSTORE CALLVALUE DUP1 ISZERO PUSH3 0x11 JUMPI PUSH1 0x0 DUP1 REVERT JUMPDEST POP PUSH1 0x40 MLOAD PUSH3 0x2E57 CODESIZE SUB DUP1 PUSH3 0x2E57 DUP4 CODECOPY DUP2 DUP2 ADD PUSH1 0x40 MSTORE DUP2 ADD SWAP1 PUSH3 0x37 SWAP2 SWAP1 PUSH3 0x277 JUMP JUMPDEST CALLER PUSH1 0x0 PUSH20 0xFFFFFFFFFFFFFFFFFFFFFFFFFFFFFFFFFFFFFFFF AND DUP2 PUSH20 0xFFFFFFFFFFFFFFFFFFFFFFFFFFFFFFFFFFFFFFFF AND SUB PUSH3 0xAD JUMPI PUSH1 0x0 PUSH1 0x40 MLOAD PUSH32 0x1E4FBDF700000000000000000000000000000000000000000000000000000000 DUP2 MSTORE PUSH1 0x4 ADD PUSH3 0xA4 SWAP2 SWAP1 PUSH3 0x2CF JUMP JUMPDEST PUSH1 0x40 MLOAD DUP1 SWAP2 SUB SWAP1 REVERT JUMPDEST PUSH3 0xBE DUP2 PUSH3 0x149 PUSH1 0x20 SHL PUSH1 0x20 SHR JUMP JUMPDEST POP DUP2 PUSH1 0x1 PUSH1 0x0 PUSH2 0x100 EXP DUP2 SLOAD DUP2 PUSH20 0xFFFFFFFFFFFFFFFFFFFFFFFFFFFFFFFFFFFFFFFF MUL NOT AND SWAP1 DUP4 PUSH20 0xFFFFFFFFFFFFFFFFFFFFFFFFFFFFFFFFFFFFFFFF AND MUL OR SWAP1 SSTORE POP DUP1 PUSH1 0x2 PUSH1 0x0 PUSH2 0x100 EXP DUP2 SLOAD DUP2 PUSH20 0xFFFFFFFFFFFFFFFFFFFFFFFFFFFFFFFFFFFFFFFF MUL NOT AND SWAP1 DUP4 PUSH20 0xFFFFFFFFFFFFFFFFFFFFFFFFFFFFFFFFFFFFFFFF AND MUL OR SWAP1 SSTORE POP POP POP PUSH3 0x2EC JUMP JUMPDEST PUSH1 0x0 DUP1 PUSH1 0x0 SWAP1 SLOAD SWAP1 PUSH2 0x100 EXP SWAP1 DIV PUSH20 0xFFFFFFFFFFFFFFFFFFFFFFFFFFFFFFFFFFFFFFFF AND SWAP1 POP DUP2 PUSH1 0x0 DUP1 PUSH2 0x100 EXP DUP2 SLOAD DUP2 PUSH20 0xFFFFFFFFFFFFFFFFFFFFFFFFFFFFFFFFFFFFFFFF MUL NOT AND SWAP1 DUP4 PUSH20 0xFFFFFFFFFFFFFFFFFFFFFFFFFFFFFFFFFFFFFFFF AND MUL OR SWAP1 SSTORE POP DUP2 PUSH20 0xFFFFFFFFFFFFFFFFFFFFFFFFFFFFFFFFFFFFFFFF AND DUP2 PUSH20 0xFFFFFFFFFFFFFFFFFFFFFFFFFFFFFFFFFFFFFFFF AND PUSH32 0x8BE0079C531659141344CD1FD0A4F28419497F9722A3DAAFE3B4186F6B6457E0 PUSH1 0x40 MLOAD PUSH1 0x40 MLOAD DUP1 SWAP2 SUB SWAP1 LOG3 POP POP JUMP JUMPDEST PUSH1 0x0 DUP1 REVERT JUMPDEST PUSH1 0x0 PUSH20 0xFFFFFFFFFFFFFFFFFFFFFFFFFFFFFFFFFFFFFFFF DUP3 AND SWAP1 POP SWAP2 SWAP1 POP JUMP JUMPDEST PUSH1 0x0 PUSH3 0x23F DUP3 PUSH3 0x212 JUMP JUMPDEST SWAP1 POP SWAP2 SWAP1 POP JUMP JUMPDEST PUSH3 0x251 DUP2 PUSH3 0x232 JUMP JUMPDEST DUP2 EQ PUSH3 0x25D JUMPI PUSH1 0x0 DUP1 REVERT JUMPDEST POP JUMP JUMPDEST PUSH1 0x0 DUP2 MLOAD SWAP1 POP PUSH3 0x271 DUP2 PUSH3 0x246 JUMP JUMPDEST SWAP3 SWAP2 POP POP JUMP JUMPDEST PUSH1 0x0 DUP1 PUSH1 0x40 DUP4 DUP6 SUB SLT ISZERO PUSH3 0x291 JUMPI PUSH3 0x290 PUSH3 0x20D JUMP JUMPDEST JUMPDEST PUSH1 0x0 PUSH3 0x2A1 DUP6 DUP3 DUP7 ADD PUSH3 0x260 JUMP JUMPDEST SWAP3 POP POP PUSH1 0x20 PUSH3 0x2B4 DUP6 DUP3 DUP7 ADD PUSH3 0x260 JUMP JUMPDEST SWAP2 POP POP SWAP3 POP SWAP3 SWAP1 POP JUMP JUMPDEST PUSH3 0x2C9 DUP2 PUSH3 0x232 JUMP JUMPDEST DUP3 MSTORE POP POP JUMP JUMPDEST PUSH1 0x0 PUSH1 0x20 DUP3 ADD SWAP1 POP PUSH3 0x2E6 PUSH1 0x0 DUP4 ADD DUP5 PUSH3 0x2BE JUMP JUMPDEST SWAP3 SWAP2 POP POP JUMP JUMPDEST PUSH2 0x2B5B DUP1 PUSH3 0x2FC PUSH1 0x0 CODECOPY PUSH1 0x0 RETURN INVALID PUSH1 0x80 PUSH1 0x40 MSTORE PUSH1 0x4 CALLDATASIZE LT PUSH2 0xF3 JUMPI PUSH1 0x0 CALLDATALOAD PUSH1 0xE0 SHR DUP1 PUSH4 0x8010FCAF GT PUSH2 0x8A JUMPI DUP1 PUSH4 0xCC2125BB GT PUSH2 0x59 JUMPI DUP1 PUSH4 0xCC2125BB EQ PUSH2 0x2F9 JUMPI DUP1 PUSH4 0xD539CB99 EQ PUSH2 0x336 JUMPI DUP1 PUSH4 0xE35FE366 EQ PUSH2 0x373 JUMPI DUP1 PUSH4 0xF2FDE38B EQ PUSH2 0x3B0 JUMPI PUSH2 0xF3 JUMP JUMPDEST DUP1 PUSH4 0x8010FCAF EQ PUSH2 0x24F JUMPI DUP1 PUSH4 0x8DA5CB5B EQ PUSH2 0x27A JUMPI DUP1 PUSH4 0xACE417E0 EQ PUSH2 0x2A5 JUMPI DUP1 PUSH4 0xC33DC916 EQ PUSH2 0x2E2 JUMPI PUSH2 0xF3 JUMP JUMPDEST DUP1 PUSH4 0x42FE69D4 GT PUSH2 0xC6 JUMPI DUP1 PUSH4 0x42FE69D4 EQ PUSH2 0x1B4 JUMPI DUP1 PUSH4 0x4DE2BFBF EQ PUSH2 0x1F1 JUMPI DUP1 PUSH4 0x715018A6 EQ PUSH2 0x20D JUMPI DUP1 PUSH4 0x777ACF37 EQ PUSH2 0x224 JUMPI PUSH2 0xF3 JUMP JUMPDEST DUP1 PUSH4 0x1687D9A6 EQ PUSH2 0xF8 JUMPI DUP1 PUSH4 0x1D738726 EQ PUSH2 0x121 JUMPI DUP1 PUSH4 0x1DD6AEC2 EQ PUSH2 0x15E JUMPI DUP1 PUSH4 0x3AD6D516 EQ PUSH2 0x189 JUMPI JUMPDEST PUSH1 0x0 DUP1 REVERT JUMPDEST CALLVALUE DUP1 ISZERO PUSH2 0x104 JUMPI PUSH1 0x0 DUP1 REVERT JUMPDEST POP PUSH2 0x11F PUSH1 0x4 DUP1 CALLDATASIZE SUB DUP2 ADD SWAP1 PUSH2 0x11A SWAP2 SWAP1 PUSH2 0x1540 JUMP JUMPDEST PUSH2 0x3D9 JUMP JUMPDEST STOP JUMPDEST CALLVALUE DUP1 ISZERO PUSH2 0x12D JUMPI PUSH1 0x0 DUP1 REVERT JUMPDEST POP PUSH2 0x148 PUSH1 0x4 DUP1 CALLDATASIZE SUB DUP2 ADD SWAP1 PUSH2 0x143 SWAP2 SWAP1 PUSH2 0x159C JUMP JUMPDEST PUSH2 0x8A8 JUMP JUMPDEST PUSH1 0x40 MLOAD PUSH2 0x155 SWAP2 SWAP1 PUSH2 0x1659 JUMP JUMPDEST PUSH1 0x40 MLOAD DUP1 SWAP2 SUB SWAP1 RETURN JUMPDEST CALLVALUE DUP1 ISZERO PUSH2 0x16A JUMPI PUSH1 0x0 DUP1 REVERT JUMPDEST POP PUSH2 0x173 PUSH2 0x948 JUMP JUMPDEST PUSH1 0x40 MLOAD PUSH2 0x180 SWAP2 SWAP1 PUSH2 0x168A JUMP JUMPDEST PUSH1 0x40 MLOAD DUP1 SWAP2 SUB SWAP1 RETURN JUMPDEST CALLVALUE DUP1 ISZERO PUSH2 0x195 JUMPI PUSH1 0x0 DUP1 REVERT JUMPDEST POP PUSH2 0x19E PUSH2 0x96C JUMP JUMPDEST PUSH1 0x40 MLOAD PUSH2 0x1AB SWAP2 SWAP1 PUSH2 0x1724 JUMP JUMPDEST PUSH1 0x40 MLOAD DUP1 SWAP2 SUB SWAP1 RETURN JUMPDEST CALLVALUE DUP1 ISZERO PUSH2 0x1C0 JUMPI PUSH1 0x0 DUP1 REVERT JUMPDEST POP PUSH2 0x1DB PUSH1 0x4 DUP1 CALLDATASIZE SUB DUP2 ADD SWAP1 PUSH2 0x1D6 SWAP2 SWAP1 PUSH2 0x177D JUMP JUMPDEST PUSH2 0x992 JUMP JUMPDEST PUSH1 0x40 MLOAD PUSH2 0x1E8 SWAP2 SWAP1 PUSH2 0x1659 JUMP JUMPDEST PUSH1 0x40 MLOAD DUP1 SWAP2 SUB SWAP1 RETURN JUMPDEST PUSH2 0x20B PUSH1 0x4 DUP1 CALLDATASIZE SUB DUP2 ADD SWAP1 PUSH2 0x206 SWAP2 SWAP1 PUSH2 0x18DF JUMP JUMPDEST PUSH2 0xAEF JUMP JUMPDEST STOP JUMPDEST CALLVALUE DUP1 ISZERO PUSH2 0x219 JUMPI PUSH1 0x0 DUP1 REVERT JUMPDEST POP PUSH2 0x222 PUSH2 0xECE JUMP JUMPDEST STOP JUMPDEST CALLVALUE DUP1 ISZERO PUSH2 0x230 JUMPI PUSH1 0x0 DUP1 REVERT JUMPDEST POP PUSH2 0x239 PUSH2 0xEE2 JUMP JUMPDEST PUSH1 0x40 MLOAD PUSH2 0x246 SWAP2 SWAP1 PUSH2 0x1659 JUMP JUMPDEST PUSH1 0x40 MLOAD DUP1 SWAP2 SUB SWAP1 RETURN JUMPDEST CALLVALUE DUP1 ISZERO PUSH2 0x25B JUMPI PUSH1 0x0 DUP1 REVERT JUMPDEST POP PUSH2 0x264 PUSH2 0xFD3 JUMP JUMPDEST PUSH1 0x40 MLOAD PUSH2 0x271 SWAP2 SWAP1 PUSH2 0x1978 JUMP JUMPDEST PUSH1 0x40 MLOAD DUP1 SWAP2 SUB SWAP1 RETURN JUMPDEST CALLVALUE DUP1 ISZERO PUSH2 0x286 JUMPI PUSH1 0x0 DUP1 REVERT JUMPDEST POP PUSH2 0x28F PUSH2 0xFF9 JUMP JUMPDEST PUSH1 0x40 MLOAD PUSH2 0x29C SWAP2 SWAP1 PUSH2 0x19A2 JUMP JUMPDEST PUSH1 0x40 MLOAD DUP1 SWAP2 SUB SWAP1 RETURN JUMPDEST CALLVALUE DUP1 ISZERO PUSH2 0x2B1 JUMPI PUSH1 0x0 DUP1 REVERT JUMPDEST POP PUSH2 0x2CC PUSH1 0x4 DUP1 CALLDATASIZE SUB DUP2 ADD SWAP1 PUSH2 0x2C7 SWAP2 SWAP1 PUSH2 0x177D JUMP JUMPDEST PUSH2 0x1022 JUMP JUMPDEST PUSH1 0x40 MLOAD PUSH2 0x2D9 SWAP2 SWAP1 PUSH2 0x19D8 JUMP JUMPDEST PUSH1 0x40 MLOAD DUP1 SWAP2 SUB SWAP1 RETURN JUMPDEST CALLVALUE DUP1 ISZERO PUSH2 0x2EE JUMPI PUSH1 0x0 DUP1 REVERT JUMPDEST POP PUSH2 0x2F7 PUSH2 0x1078 JUMP JUMPDEST STOP JUMPDEST CALLVALUE DUP1 ISZERO PUSH2 0x305 JUMPI PUSH1 0x0 DUP1 REVERT JUMPDEST POP PUSH2 0x320 PUSH1 0x4 DUP1 CALLDATASIZE SUB DUP2 ADD SWAP1 PUSH2 0x31B SWAP2 SWAP1 PUSH2 0x177D JUMP JUMPDEST PUSH2 0x11A9 JUMP JUMPDEST PUSH1 0x40 MLOAD PUSH2 0x32D SWAP2 SWAP1 PUSH2 0x1659 JUMP JUMPDEST PUSH1 0x40 MLOAD DUP1 SWAP2 SUB SWAP1 RETURN JUMPDEST CALLVALUE DUP1 ISZERO PUSH2 0x342 JUMPI PUSH1 0x0 DUP1 REVERT JUMPDEST POP PUSH2 0x35D PUSH1 0x4 DUP1 CALLDATASIZE SUB DUP2 ADD SWAP1 PUSH2 0x358 SWAP2 SWAP1 PUSH2 0x159C JUMP JUMPDEST PUSH2 0x1249 JUMP JUMPDEST PUSH1 0x40 MLOAD PUSH2 0x36A SWAP2 SWAP1 PUSH2 0x19A2 JUMP JUMPDEST PUSH1 0x40 MLOAD DUP1 SWAP2 SUB SWAP1 RETURN JUMPDEST CALLVALUE DUP1 ISZERO PUSH2 0x37F JUMPI PUSH1 0x0 DUP1 REVERT JUMPDEST POP PUSH2 0x39A PUSH1 0x4 DUP1 CALLDATASIZE SUB DUP2 ADD SWAP1 PUSH2 0x395 SWAP2 SWAP1 PUSH2 0x177D JUMP JUMPDEST PUSH2 0x127C JUMP JUMPDEST PUSH1 0x40 MLOAD PUSH2 0x3A7 SWAP2 SWAP1 PUSH2 0x19D8 JUMP JUMPDEST PUSH1 0x40 MLOAD DUP1 SWAP2 SUB SWAP1 RETURN JUMPDEST CALLVALUE DUP1 ISZERO PUSH2 0x3BC JUMPI PUSH1 0x0 DUP1 REVERT JUMPDEST POP PUSH2 0x3D7 PUSH1 0x4 DUP1 CALLDATASIZE SUB DUP2 ADD SWAP1 PUSH2 0x3D2 SWAP2 SWAP1 PUSH2 0x177D JUMP JUMPDEST PUSH2 0x129C JUMP JUMPDEST STOP JUMPDEST PUSH1 0x0 PUSH20 0xFFFFFFFFFFFFFFFFFFFFFFFFFFFFFFFFFFFFFFFF AND PUSH1 0x5 PUSH1 0x0 DUP5 DUP2 MSTORE PUSH1 0x20 ADD SWAP1 DUP2 MSTORE PUSH1 0x20 ADD PUSH1 0x0 KECCAK256 PUSH1 0x0 SWAP1 SLOAD SWAP1 PUSH2 0x100 EXP SWAP1 DIV PUSH20 0xFFFFFFFFFFFFFFFFFFFFFFFFFFFFFFFFFFFFFFFF AND PUSH20 0xFFFFFFFFFFFFFFFFFFFFFFFFFFFFFFFFFFFFFFFF AND SUB PUSH2 0x47B JUMPI PUSH1 0x40 MLOAD PUSH32 0x8C379A000000000000000000000000000000000000000000000000000000000 DUP2 MSTORE PUSH1 0x4 ADD PUSH2 0x472 SWAP1 PUSH2 0x1A3F JUMP JUMPDEST PUSH1 0x40 MLOAD DUP1 SWAP2 SUB SWAP1 REVERT JUMPDEST PUSH1 0x0 PUSH1 0x5 PUSH1 0x0 DUP5 DUP2 MSTORE PUSH1 0x20 ADD SWAP1 DUP2 MSTORE PUSH1 0x20 ADD PUSH1 0x0 KECCAK256 PUSH1 0x0 SWAP1 SLOAD SWAP1 PUSH2 0x100 EXP SWAP1 DIV PUSH20 0xFFFFFFFFFFFFFFFFFFFFFFFFFFFFFFFFFFFFFFFF AND SWAP1 POP PUSH1 0x0 PUSH1 0x6 PUSH1 0x0 DUP6 DUP2 MSTORE PUSH1 0x20 ADD SWAP1 DUP2 MSTORE PUSH1 0x20 ADD PUSH1 0x0 KECCAK256 DUP1 SLOAD PUSH2 0x4D3 SWAP1 PUSH2 0x1A8E JUMP JUMPDEST DUP1 PUSH1 0x1F ADD PUSH1 0x20 DUP1 SWAP2 DIV MUL PUSH1 0x20 ADD PUSH1 0x40 MLOAD SWAP1 DUP2 ADD PUSH1 0x40 MSTORE DUP1 SWAP3 SWAP2 SWAP1 DUP2 DUP2 MSTORE PUSH1 0x20 ADD DUP3 DUP1 SLOAD PUSH2 0x4FF SWAP1 PUSH2 0x1A8E JUMP JUMPDEST DUP1 ISZERO PUSH2 0x54C JUMPI DUP1 PUSH1 0x1F LT PUSH2 0x521 JUMPI PUSH2 0x100 DUP1 DUP4 SLOAD DIV MUL DUP4 MSTORE SWAP2 PUSH1 0x20 ADD SWAP2 PUSH2 0x54C JUMP JUMPDEST DUP3 ADD SWAP2 SWAP1 PUSH1 0x0 MSTORE PUSH1 0x20 PUSH1 0x0 KECCAK256 SWAP1 JUMPDEST DUP2 SLOAD DUP2 MSTORE SWAP1 PUSH1 0x1 ADD SWAP1 PUSH1 0x20 ADD DUP1 DUP4 GT PUSH2 0x52F JUMPI DUP3 SWAP1 SUB PUSH1 0x1F AND DUP3 ADD SWAP2 JUMPDEST POP POP POP POP POP SWAP1 POP PUSH1 0x2 PUSH1 0x0 SWAP1 SLOAD SWAP1 PUSH2 0x100 EXP SWAP1 DIV PUSH20 0xFFFFFFFFFFFFFFFFFFFFFFFFFFFFFFFFFFFFFFFF AND PUSH20 0xFFFFFFFFFFFFFFFFFFFFFFFFFFFFFFFFFFFFFFFF AND PUSH4 0xD2D3A41F DUP5 PUSH1 0x40 MLOAD DUP3 PUSH4 0xFFFFFFFF AND PUSH1 0xE0 SHL DUP2 MSTORE PUSH1 0x4 ADD PUSH2 0x5AE SWAP2 SWAP1 PUSH2 0x2048 JUMP JUMPDEST PUSH1 0x20 PUSH1 0x40 MLOAD DUP1 DUP4 SUB DUP2 DUP7 GAS STATICCALL ISZERO DUP1 ISZERO PUSH2 0x5CB JUMPI RETURNDATASIZE PUSH1 0x0 DUP1 RETURNDATACOPY RETURNDATASIZE PUSH1 0x0 REVERT JUMPDEST POP POP POP POP PUSH1 0x40 MLOAD RETURNDATASIZE PUSH1 0x1F NOT PUSH1 0x1F DUP3 ADD AND DUP3 ADD DUP1 PUSH1 0x40 MSTORE POP DUP2 ADD SWAP1 PUSH2 0x5EF SWAP2 SWAP1 PUSH2 0x2096 JUMP JUMPDEST PUSH2 0x62E JUMPI PUSH1 0x40 MLOAD PUSH32 0x8C379A000000000000000000000000000000000000000000000000000000000 DUP2 MSTORE PUSH1 0x4 ADD PUSH2 0x625 SWAP1 PUSH2 0x210F JUMP JUMPDEST PUSH1 0x40 MLOAD DUP1 SWAP2 SUB SWAP1 REVERT JUMPDEST PUSH32 0x576562324A736F6E000000000000000000000000000000000000000000000000 DUP4 DUP1 PUSH1 0x20 ADD SWAP1 PUSH2 0x65F SWAP2 SWAP1 PUSH2 0x213E JUMP JUMPDEST PUSH1 0x0 ADD CALLDATALOAD EQ PUSH2 0x6A3 JUMPI PUSH1 0x40 MLOAD PUSH32 0x8C379A000000000000000000000000000000000000000000000000000000000 DUP2 MSTORE PUSH1 0x4 ADD PUSH2 0x69A SWAP1 PUSH2 0x21B2 JUMP JUMPDEST PUSH1 0x40 MLOAD DUP1 SWAP2 SUB SWAP1 REVERT JUMPDEST PUSH32 0x5457495454455200000000000000000000000000000000000000000000000000 DUP4 DUP1 PUSH1 0x20 ADD SWAP1 PUSH2 0x6D4 SWAP2 SWAP1 PUSH2 0x213E JUMP JUMPDEST PUSH1 0x20 ADD CALLDATALOAD EQ PUSH2 0x718 JUMPI PUSH1 0x40 MLOAD PUSH32 0x8C379A000000000000000000000000000000000000000000000000000000000 DUP2 MSTORE PUSH1 0x4 ADD PUSH2 0x70F SWAP1 PUSH2 0x221E JUMP JUMPDEST PUSH1 0x40 MLOAD DUP1 SWAP2 SUB SWAP1 REVERT JUMPDEST PUSH1 0x0 DUP4 DUP1 PUSH1 0x20 ADD SWAP1 PUSH2 0x72A SWAP2 SWAP1 PUSH2 0x213E JUMP JUMPDEST DUP1 PUSH1 0xA0 ADD SWAP1 PUSH2 0x739 SWAP2 SWAP1 PUSH2 0x223E JUMP JUMPDEST DUP1 PUSH1 0x0 ADD SWAP1 PUSH2 0x748 SWAP2 SWAP1 PUSH2 0x2266 JUMP JUMPDEST DUP2 ADD SWAP1 PUSH2 0x755 SWAP2 SWAP1 PUSH2 0x22C9 JUMP JUMPDEST SWAP1 POP PUSH1 0x1 PUSH1 0x3 PUSH1 0x0 DUP6 PUSH20 0xFFFFFFFFFFFFFFFFFFFFFFFFFFFFFFFFFFFFFFFF AND PUSH20 0xFFFFFFFFFFFFFFFFFFFFFFFFFFFFFFFFFFFFFFFF AND DUP2 MSTORE PUSH1 0x20 ADD SWAP1 DUP2 MSTORE PUSH1 0x20 ADD PUSH1 0x0 KECCAK256 PUSH1 0x0 PUSH2 0x100 EXP DUP2 SLOAD DUP2 PUSH1 0xFF MUL NOT AND SWAP1 DUP4 ISZERO ISZERO MUL OR SWAP1 SSTORE POP DUP1 PUSH1 0x4 PUSH1 0x0 DUP6 PUSH20 0xFFFFFFFFFFFFFFFFFFFFFFFFFFFFFFFFFFFFFFFF AND PUSH20 0xFFFFFFFFFFFFFFFFFFFFFFFFFFFFFFFFFFFFFFFF AND DUP2 MSTORE PUSH1 0x20 ADD SWAP1 DUP2 MSTORE PUSH1 0x20 ADD PUSH1 0x0 KECCAK256 SWAP1 DUP2 PUSH2 0x7FB SWAP2 SWAP1 PUSH2 0x24BE JUMP JUMPDEST POP PUSH1 0x5 PUSH1 0x0 DUP7 DUP2 MSTORE PUSH1 0x20 ADD SWAP1 DUP2 MSTORE PUSH1 0x20 ADD PUSH1 0x0 KECCAK256 PUSH1 0x0 PUSH2 0x100 EXP DUP2 SLOAD SWAP1 PUSH20 0xFFFFFFFFFFFFFFFFFFFFFFFFFFFFFFFFFFFFFFFF MUL NOT AND SWAP1 SSTORE PUSH1 0x6 PUSH1 0x0 DUP7 DUP2 MSTORE PUSH1 0x20 ADD SWAP1 DUP2 MSTORE PUSH1 0x20 ADD PUSH1 0x0 KECCAK256 PUSH1 0x0 PUSH2 0x851 SWAP2 SWAP1 PUSH2 0x1475 JUMP JUMPDEST DUP3 PUSH20 0xFFFFFFFFFFFFFFFFFFFFFFFFFFFFFFFFFFFFFFFF AND PUSH32 0x7AB730B5BFB557C288BA21DEBE408DDCECCCF1F6788EE7EC8015A5E0DA5D1227 DUP3 DUP5 PUSH1 0x40 MLOAD PUSH2 0x899 SWAP3 SWAP2 SWAP1 PUSH2 0x2590 JUMP JUMPDEST PUSH1 0x40 MLOAD DUP1 SWAP2 SUB SWAP1 LOG2 POP POP POP POP POP JUMP JUMPDEST PUSH1 0x6 PUSH1 0x20 MSTORE DUP1 PUSH1 0x0 MSTORE PUSH1 0x40 PUSH1 0x0 KECCAK256 PUSH1 0x0 SWAP2 POP SWAP1 POP DUP1 SLOAD PUSH2 0x8C7 SWAP1 PUSH2 0x1A8E JUMP JUMPDEST DUP1 PUSH1 0x1F ADD PUSH1 0x20 DUP1 SWAP2 DIV MUL PUSH1 0x20 ADD PUSH1 0x40 MLOAD SWAP1 DUP2 ADD PUSH1 0x40 MSTORE DUP1 SWAP3 SWAP2 SWAP1 DUP2 DUP2 MSTORE PUSH1 0x20 ADD DUP3 DUP1 SLOAD PUSH2 0x8F3 SWAP1 PUSH2 0x1A8E JUMP JUMPDEST DUP1 ISZERO PUSH2 0x940 JUMPI DUP1 PUSH1 0x1F LT PUSH2 0x915 JUMPI PUSH2 0x100 DUP1 DUP4 SLOAD DIV MUL DUP4 MSTORE SWAP2 PUSH1 0x20 ADD SWAP2 PUSH2 0x940 JUMP JUMPDEST DUP3 ADD SWAP2 SWAP1 PUSH1 0x0 MSTORE PUSH1 0x20 PUSH1 0x0 KECCAK256 SWAP1 JUMPDEST DUP2 SLOAD DUP2 MSTORE SWAP1 PUSH1 0x1 ADD SWAP1 PUSH1 0x20 ADD DUP1 DUP4 GT PUSH2 0x923 JUMPI DUP3 SWAP1 SUB PUSH1 0x1F AND DUP3 ADD SWAP2 JUMPDEST POP POP POP POP POP DUP2 JUMP JUMPDEST PUSH32 0x576562324A736F6E000000000000000000000000000000000000000000000000 DUP2 JUMP JUMPDEST PUSH1 0x2 PUSH1 0x0 SWAP1 SLOAD SWAP1 PUSH2 0x100 EXP SWAP1 DIV PUSH20 0xFFFFFFFFFFFFFFFFFFFFFFFFFFFFFFFFFFFFFFFF AND DUP2 JUMP JUMPDEST PUSH1 0x60 PUSH1 0x3 PUSH1 0x0 DUP4 PUSH20 0xFFFFFFFFFFFFFFFFFFFFFFFFFFFFFFFFFFFFFFFF AND PUSH20 0xFFFFFFFFFFFFFFFFFFFFFFFFFFFFFFFFFFFFFFFF AND DUP2 MSTORE PUSH1 0x20 ADD SWAP1 DUP2 MSTORE PUSH1 0x20 ADD PUSH1 0x0 KECCAK256 PUSH1 0x0 SWAP1 SLOAD SWAP1 PUSH2 0x100 EXP SWAP1 DIV PUSH1 0xFF AND PUSH2 0xA20 JUMPI PUSH1 0x40 MLOAD PUSH32 0x8C379A000000000000000000000000000000000000000000000000000000000 DUP2 MSTORE PUSH1 0x4 ADD PUSH2 0xA17 SWAP1 PUSH2 0x2613 JUMP JUMPDEST PUSH1 0x40 MLOAD DUP1 SWAP2 SUB SWAP1 REVERT JUMPDEST PUSH1 0x4 PUSH1 0x0 DUP4 PUSH20 0xFFFFFFFFFFFFFFFFFFFFFFFFFFFFFFFFFFFFFFFF AND PUSH20 0xFFFFFFFFFFFFFFFFFFFFFFFFFFFFFFFFFFFFFFFF AND DUP2 MSTORE PUSH1 0x20 ADD SWAP1 DUP2 MSTORE PUSH1 0x20 ADD PUSH1 0x0 KECCAK256 DUP1 SLOAD PUSH2 0xA6A SWAP1 PUSH2 0x1A8E JUMP JUMPDEST DUP1 PUSH1 0x1F ADD PUSH1 0x20 DUP1 SWAP2 DIV MUL PUSH1 0x20 ADD PUSH1 0x40 MLOAD SWAP1 DUP2 ADD PUSH1 0x40 MSTORE DUP1 SWAP3 SWAP2 SWAP1 DUP2 DUP2 MSTORE PUSH1 0x20 ADD DUP3 DUP1 SLOAD PUSH2 0xA96 SWAP1 PUSH2 0x1A8E JUMP JUMPDEST DUP1 ISZERO PUSH2 0xAE3 JUMPI DUP1 PUSH1 0x1F LT PUSH2 0xAB8 JUMPI PUSH2 0x100 DUP1 DUP4 SLOAD DIV MUL DUP4 MSTORE SWAP2 PUSH1 0x20 ADD SWAP2 PUSH2 0xAE3 JUMP JUMPDEST DUP3 ADD SWAP2 SWAP1 PUSH1 0x0 MSTORE PUSH1 0x20 PUSH1 0x0 KECCAK256 SWAP1 JUMPDEST DUP2 SLOAD DUP2 MSTORE SWAP1 PUSH1 0x1 ADD SWAP1 PUSH1 0x20 ADD DUP1 DUP4 GT PUSH2 0xAC6 JUMPI DUP3 SWAP1 SUB PUSH1 0x1F AND DUP3 ADD SWAP2 JUMPDEST POP POP POP POP POP SWAP1 POP SWAP2 SWAP1 POP JUMP JUMPDEST PUSH1 0x0 DUP3 PUSH1 0x40 MLOAD PUSH1 0x20 ADD PUSH2 0xB02 SWAP2 SWAP1 PUSH2 0x2707 JUMP JUMPDEST PUSH1 0x40 MLOAD PUSH1 0x20 DUP2 DUP4 SUB SUB DUP2 MSTORE SWAP1 PUSH1 0x40 MSTORE SWAP1 POP PUSH1 0x0 PUSH1 0x40 MLOAD DUP1 PUSH1 0xE0 ADD PUSH1 0x40 MSTORE DUP1 DUP4 DUP2 MSTORE PUSH1 0x20 ADD PUSH1 0x40 MLOAD DUP1 PUSH1 0x40 ADD PUSH1 0x40 MSTORE DUP1 PUSH1 0x3 DUP2 MSTORE PUSH1 0x20 ADD PUSH32 0x4745540000000000000000000000000000000000000000000000000000000000 DUP2 MSTORE POP DUP2 MSTORE PUSH1 0x20 ADD PUSH1 0x40 MLOAD DUP1 PUSH1 0x40 ADD PUSH1 0x40 MSTORE DUP1 PUSH1 0x2 DUP2 MSTORE PUSH1 0x20 ADD PUSH32 0x7B7D000000000000000000000000000000000000000000000000000000000000 DUP2 MSTORE POP DUP2 MSTORE PUSH1 0x20 ADD PUSH1 0x40 MLOAD DUP1 PUSH1 0x40 ADD PUSH1 0x40 MSTORE DUP1 PUSH1 0x2 DUP2 MSTORE PUSH1 0x20 ADD PUSH32 0x7B7D000000000000000000000000000000000000000000000000000000000000 DUP2 MSTORE POP DUP2 MSTORE PUSH1 0x20 ADD PUSH1 0x40 MLOAD DUP1 PUSH1 0x40 ADD PUSH1 0x40 MSTORE DUP1 PUSH1 0x2 DUP2 MSTORE PUSH1 0x20 ADD PUSH32 0x7B7D000000000000000000000000000000000000000000000000000000000000 DUP2 MSTORE POP DUP2 MSTORE PUSH1 0x20 ADD PUSH1 0x40 MLOAD DUP1 PUSH1 0x40 ADD PUSH1 0x40 MSTORE DUP1 PUSH1 0xF DUP2 MSTORE PUSH1 0x20 ADD PUSH32 0x2E646174612E617574686F725F69640000000000000000000000000000000000 DUP2 MSTORE POP DUP2 MSTORE PUSH1 0x20 ADD PUSH1 0x40 MLOAD DUP1 PUSH1 0x40 ADD PUSH1 0x40 MSTORE DUP1 PUSH1 0x8 DUP2 MSTORE PUSH1 0x20 ADD PUSH32 0x28737472696E6729000000000000000000000000000000000000000000000000 DUP2 MSTORE POP DUP2 MSTORE POP SWAP1 POP PUSH1 0x0 DUP4 PUSH1 0x40 MLOAD PUSH1 0x20 ADD PUSH2 0xC9B SWAP2 SWAP1 PUSH2 0x1659 JUMP JUMPDEST PUSH1 0x40 MLOAD PUSH1 0x20 DUP2 DUP4 SUB SUB DUP2 MSTORE SWAP1 PUSH1 0x40 MSTORE SWAP1 POP PUSH1 0x0 DUP2 DUP1 MLOAD SWAP1 PUSH1 0x20 ADD KECCAK256 SWAP1 POP PUSH1 0x0 PUSH1 0x40 MLOAD DUP1 PUSH1 0x80 ADD PUSH1 0x40 MSTORE DUP1 PUSH32 0x576562324A736F6E000000000000000000000000000000000000000000000000 DUP2 MSTORE PUSH1 0x20 ADD PUSH32 0x5457495454455200000000000000000000000000000000000000000000000000 DUP2 MSTORE PUSH1 0x20 ADD DUP4 DUP2 MSTORE PUSH1 0x20 ADD DUP6 DUP2 MSTORE POP SWAP1 POP PUSH1 0x0 DUP2 PUSH1 0x40 MLOAD PUSH1 0x20 ADD PUSH2 0xD30 SWAP2 SWAP1 PUSH2 0x2896 JUMP JUMPDEST PUSH1 0x40 MLOAD PUSH1 0x20 DUP2 DUP4 SUB SUB DUP2 MSTORE SWAP1 PUSH1 0x40 MSTORE SWAP1 POP PUSH1 0x1 PUSH1 0x0 SWAP1 SLOAD SWAP1 PUSH2 0x100 EXP SWAP1 DIV PUSH20 0xFFFFFFFFFFFFFFFFFFFFFFFFFFFFFFFFFFFFFFFF AND PUSH20 0xFFFFFFFFFFFFFFFFFFFFFFFFFFFFFFFFFFFFFFFF AND PUSH4 0x6238F354 CALLVALUE DUP4 PUSH1 0x40 MLOAD DUP4 PUSH4 0xFFFFFFFF AND PUSH1 0xE0 SHL DUP2 MSTORE PUSH1 0x4 ADD PUSH2 0xD9D SWAP2 SWAP1 PUSH2 0x290D JUMP JUMPDEST PUSH1 0x0 PUSH1 0x40 MLOAD DUP1 DUP4 SUB DUP2 DUP6 DUP9 DUP1 EXTCODESIZE ISZERO DUP1 ISZERO PUSH2 0xDB6 JUMPI PUSH1 0x0 DUP1 REVERT JUMPDEST POP GAS CALL ISZERO DUP1 ISZERO PUSH2 0xDCA JUMPI RETURNDATASIZE PUSH1 0x0 DUP1 RETURNDATACOPY RETURNDATASIZE PUSH1 0x0 REVERT JUMPDEST POP POP POP POP POP PUSH1 0x0 CALLER DUP10 DUP10 TIMESTAMP PUSH1 0x40 MLOAD PUSH1 0x20 ADD PUSH2 0xDE8 SWAP5 SWAP4 SWAP3 SWAP2 SWAP1 PUSH2 0x2998 JUMP JUMPDEST PUSH1 0x40 MLOAD PUSH1 0x20 DUP2 DUP4 SUB SUB DUP2 MSTORE SWAP1 PUSH1 0x40 MSTORE DUP1 MLOAD SWAP1 PUSH1 0x20 ADD KECCAK256 SWAP1 POP CALLER PUSH1 0x5 PUSH1 0x0 DUP4 DUP2 MSTORE PUSH1 0x20 ADD SWAP1 DUP2 MSTORE PUSH1 0x20 ADD PUSH1 0x0 KECCAK256 PUSH1 0x0 PUSH2 0x100 EXP DUP2 SLOAD DUP2 PUSH20 0xFFFFFFFFFFFFFFFFFFFFFFFFFFFFFFFFFFFFFFFF MUL NOT AND SWAP1 DUP4 PUSH20 0xFFFFFFFFFFFFFFFFFFFFFFFFFFFFFFFFFFFFFFFF AND MUL OR SWAP1 SSTORE POP DUP9 PUSH1 0x6 PUSH1 0x0 DUP4 DUP2 MSTORE PUSH1 0x20 ADD SWAP1 DUP2 MSTORE PUSH1 0x20 ADD PUSH1 0x0 KECCAK256 SWAP1 DUP2 PUSH2 0xE72 SWAP2 SWAP1 PUSH2 0x24BE JUMP JUMPDEST POP CALLER PUSH20 0xFFFFFFFFFFFFFFFFFFFFFFFFFFFFFFFFFFFFFFFF AND PUSH32 0xC0390AB7B80F1315D9163B445F9C820E10AF211BCD0F65A5084496FE57AC4643 DUP11 DUP4 PUSH1 0x40 MLOAD PUSH2 0xEBB SWAP3 SWAP2 SWAP1 PUSH2 0x29DE JUMP JUMPDEST PUSH1 0x40 MLOAD DUP1 SWAP2 SUB SWAP1 LOG2 POP POP POP POP POP POP POP POP POP JUMP JUMPDEST PUSH2 0xED6 PUSH2 0x1322 JUMP JUMPDEST PUSH2 0xEE0 PUSH1 0x0 PUSH2 0x13A9 JUMP JUMPDEST JUMP JUMPDEST PUSH1 0x60 PUSH1 0x3 PUSH1 0x0 CALLER PUSH20 0xFFFFFFFFFFFFFFFFFFFFFFFFFFFFFFFFFFFFFFFF AND PUSH20 0xFFFFFFFFFFFFFFFFFFFFFFFFFFFFFFFFFFFFFFFF AND DUP2 MSTORE PUSH1 0x20 ADD SWAP1 DUP2 MSTORE PUSH1 0x20 ADD PUSH1 0x0 KECCAK256 PUSH1 0x0 SWAP1 SLOAD SWAP1 PUSH2 0x100 EXP SWAP1 DIV PUSH1 0xFF AND PUSH2 0xF70 JUMPI PUSH1 0x40 MLOAD PUSH32 0x8C379A000000000000000000000000000000000000000000000000000000000 DUP2 MSTORE PUSH1 0x4 ADD PUSH2 0xF67 SWAP1 PUSH2 0x2613 JUMP JUMPDEST PUSH1 0x40 MLOAD DUP1 SWAP2 SUB SWAP1 REVERT JUMPDEST PUSH1 0x4 PUSH1 0x0 CALLER PUSH20 0xFFFFFFFFFFFFFFFFFFFFFFFFFFFFFFFFFFFFFFFF AND PUSH20 0xFFFFFFFFFFFFFFFFFFFFFFFFFFFFFFFFFFFFFFFF AND DUP2 MSTORE PUSH1 0x20 ADD SWAP1 DUP2 MSTORE PUSH1 0x20 ADD PUSH1 0x0 KECCAK256 PUSH1 0x40 MLOAD PUSH1 0x20 ADD PUSH2 0xFBF SWAP2 SWAP1 PUSH2 0x2B03 JUMP JUMPDEST PUSH1 0x40 MLOAD PUSH1 0x20 DUP2 DUP4 SUB SUB DUP2 MSTORE SWAP1 PUSH1 0x40 MSTORE SWAP1 POP SWAP1 JUMP JUMPDEST PUSH1 0x1 PUSH1 0x0 SWAP1 SLOAD SWAP1 PUSH2 0x100 EXP SWAP1 DIV PUSH20 0xFFFFFFFFFFFFFFFFFFFFFFFFFFFFFFFFFFFFFFFF AND DUP2 JUMP JUMPDEST PUSH1 0x0 DUP1 PUSH1 0x0 SWAP1 SLOAD SWAP1 PUSH2 0x100 EXP SWAP1 DIV PUSH20 0xFFFFFFFFFFFFFFFFFFFFFFFFFFFFFFFFFFFFFFFF AND SWAP1 POP SWAP1 JUMP JUMPDEST PUSH1 0x0 PUSH1 0x3 PUSH1 0x0 DUP4 PUSH20 0xFFFFFFFFFFFFFFFFFFFFFFFFFFFFFFFFFFFFFFFF AND PUSH20 0xFFFFFFFFFFFFFFFFFFFFFFFFFFFFFFFFFFFFFFFF AND DUP2 MSTORE PUSH1 0x20 ADD SWAP1 DUP2 MSTORE PUSH1 0x20 ADD PUSH1 0x0 KECCAK256 PUSH1 0x0 SWAP1 SLOAD SWAP1 PUSH2 0x100 EXP SWAP1 DIV PUSH1 0xFF AND SWAP1 POP SWAP2 SWAP1 POP JUMP JUMPDEST PUSH1 0x3 PUSH1 0x0 CALLER PUSH20 0xFFFFFFFFFFFFFFFFFFFFFFFFFFFFFFFFFFFFFFFF AND PUSH20 0xFFFFFFFFFFFFFFFFFFFFFFFFFFFFFFFFFFFFFFFF AND DUP2 MSTORE PUSH1 0x20 ADD SWAP1 DUP2 MSTORE PUSH1 0x20 ADD PUSH1 0x0 KECCAK256 PUSH1 0x0 SWAP1 SLOAD SWAP1 PUSH2 0x100 EXP SWAP1 DIV PUSH1 0xFF AND PUSH2 0x1104 JUMPI PUSH1 0x40 MLOAD PUSH32 0x8C379A000000000000000000000000000000000000000000000000000000000 DUP2 MSTORE PUSH1 0x4 ADD PUSH2 0x10FB SWAP1 PUSH2 0x2613 JUMP JUMPDEST PUSH1 0x40 MLOAD DUP1 SWAP2 SUB SWAP1 REVERT JUMPDEST PUSH1 0x0 PUSH1 0x3 PUSH1 0x0 CALLER PUSH20 0xFFFFFFFFFFFFFFFFFFFFFFFFFFFFFFFFFFFFFFFF AND PUSH20 0xFFFFFFFFFFFFFFFFFFFFFFFFFFFFFFFFFFFFFFFF AND DUP2 MSTORE PUSH1 0x20 ADD SWAP1 DUP2 MSTORE PUSH1 0x20 ADD PUSH1 0x0 KECCAK256 PUSH1 0x0 PUSH2 0x100 EXP DUP2 SLOAD DUP2 PUSH1 0xFF MUL NOT AND SWAP1 DUP4 ISZERO ISZERO MUL OR SWAP1 SSTORE POP PUSH1 0x4 PUSH1 0x0 CALLER PUSH20 0xFFFFFFFFFFFFFFFFFFFFFFFFFFFFFFFFFFFFFFFF AND PUSH20 0xFFFFFFFFFFFFFFFFFFFFFFFFFFFFFFFFFFFFFFFF AND DUP2 MSTORE PUSH1 0x20 ADD SWAP1 DUP2 MSTORE PUSH1 0x20 ADD PUSH1 0x0 KECCAK256 PUSH1 0x0 PUSH2 0x11A7 SWAP2 SWAP1 PUSH2 0x1475 JUMP JUMPDEST JUMP JUMPDEST PUSH1 0x4 PUSH1 0x20 MSTORE DUP1 PUSH1 0x0 MSTORE PUSH1 0x40 PUSH1 0x0 KECCAK256 PUSH1 0x0 SWAP2 POP SWAP1 POP DUP1 SLOAD PUSH2 0x11C8 SWAP1 PUSH2 0x1A8E JUMP JUMPDEST DUP1 PUSH1 0x1F ADD PUSH1 0x20 DUP1 SWAP2 DIV MUL PUSH1 0x20 ADD PUSH1 0x40 MLOAD SWAP1 DUP2 ADD PUSH1 0x40 MSTORE DUP1 SWAP3 SWAP2 SWAP1 DUP2 DUP2 MSTORE PUSH1 0x20 ADD DUP3 DUP1 SLOAD PUSH2 0x11F4 SWAP1 PUSH2 0x1A8E JUMP JUMPDEST DUP1 ISZERO PUSH2 0x1241 JUMPI DUP1 PUSH1 0x1F LT PUSH2 0x1216 JUMPI PUSH2 0x100 DUP1 DUP4 SLOAD DIV MUL DUP4 MSTORE SWAP2 PUSH1 0x20 ADD SWAP2 PUSH2 0x1241 JUMP JUMPDEST DUP3 ADD SWAP2 SWAP1 PUSH1 0x0 MSTORE PUSH1 0x20 PUSH1 0x0 KECCAK256 SWAP1 JUMPDEST DUP2 SLOAD DUP2 MSTORE SWAP1 PUSH1 0x1 ADD SWAP1 PUSH1 0x20 ADD DUP1 DUP4 GT PUSH2 0x1224 JUMPI DUP3 SWAP1 SUB PUSH1 0x1F AND DUP3 ADD SWAP2 JUMPDEST POP POP POP POP POP DUP2 JUMP JUMPDEST PUSH1 0x5 PUSH1 0x20 MSTORE DUP1 PUSH1 0x0 MSTORE PUSH1 0x40 PUSH1 0x0 KECCAK256 PUSH1 0x0 SWAP2 POP SLOAD SWAP1 PUSH2 0x100 EXP SWAP1 DIV PUSH20 0xFFFFFFFFFFFFFFFFFFFFFFFFFFFFFFFFFFFFFFFF AND DUP2 JUMP JUMPDEST PUSH1 0x3 PUSH1 0x20 MSTORE DUP1 PUSH1 0x0 MSTORE PUSH1 0x40 PUSH1 0x0 KECCAK256 PUSH1 0x0 SWAP2 POP SLOAD SWAP1 PUSH2 0x100 EXP SWAP1 DIV PUSH1 0xFF AND DUP2 JUMP JUMPDEST PUSH2 0x12A4 PUSH2 0x1322 JUMP JUMPDEST PUSH1 0x0 PUSH20 0xFFFFFFFFFFFFFFFFFFFFFFFFFFFFFFFFFFFFFFFF AND DUP2 PUSH20 0xFFFFFFFFFFFFFFFFFFFFFFFFFFFFFFFFFFFFFFFF AND SUB PUSH2 0x1316 JUMPI PUSH1 0x0 PUSH1 0x40 MLOAD PUSH32 0x1E4FBDF700000000000000000000000000000000000000000000000000000000 DUP2 MSTORE PUSH1 0x4 ADD PUSH2 0x130D SWAP2 SWAP1 PUSH2 0x19A2 JUMP JUMPDEST PUSH1 0x40 MLOAD DUP1 SWAP2 SUB SWAP1 REVERT JUMPDEST PUSH2 0x131F DUP2 PUSH2 0x13A9 JUMP JUMPDEST POP JUMP JUMPDEST PUSH2 0x132A PUSH2 0x146D JUMP JUMPDEST PUSH20 0xFFFFFFFFFFFFFFFFFFFFFFFFFFFFFFFFFFFFFFFF AND PUSH2 0x1348 PUSH2 0xFF9 JUMP JUMPDEST PUSH20 0xFFFFFFFFFFFFFFFFFFFFFFFFFFFFFFFFFFFFFFFF AND EQ PUSH2 0x13A7 JUMPI PUSH2 0x136B PUSH2 0x146D JUMP JUMPDEST PUSH1 0x40 MLOAD PUSH32 0x118CDAA700000000000000000000000000000000000000000000000000000000 DUP2 MSTORE PUSH1 0x4 ADD PUSH2 0x139E SWAP2 SWAP1 PUSH2 0x19A2 JUMP JUMPDEST PUSH1 0x40 MLOAD DUP1 SWAP2 SUB SWAP1 REVERT JUMPDEST JUMP JUMPDEST PUSH1 0x0 DUP1 PUSH1 0x0 SWAP1 SLOAD SWAP1 PUSH2 0x100 EXP SWAP1 DIV PUSH20 0xFFFFFFFFFFFFFFFFFFFFFFFFFFFFFFFFFFFFFFFF AND SWAP1 POP DUP2 PUSH1 0x0 DUP1 PUSH2 0x100 EXP DUP2 SLOAD DUP2 PUSH20 0xFFFFFFFFFFFFFFFFFFFFFFFFFFFFFFFFFFFFFFFF MUL NOT AND SWAP1 DUP4 PUSH20 0xFFFFFFFFFFFFFFFFFFFFFFFFFFFFFFFFFFFFFFFF AND MUL OR SWAP1 SSTORE POP DUP2 PUSH20 0xFFFFFFFFFFFFFFFFFFFFFFFFFFFFFFFFFFFFFFFF AND DUP2 PUSH20 0xFFFFFFFFFFFFFFFFFFFFFFFFFFFFFFFFFFFFFFFF AND PUSH32 0x8BE0079C531659141344CD1FD0A4F28419497F9722A3DAAFE3B4186F6B6457E0 PUSH1 0x40 MLOAD PUSH1 0x40 MLOAD DUP1 SWAP2 SUB SWAP1 LOG3 POP POP JUMP JUMPDEST PUSH1 0x0 CALLER SWAP1 POP SWAP1 JUMP JUMPDEST POP DUP1 SLOAD PUSH2 0x1481 SWAP1 PUSH2 0x1A8E JUMP JUMPDEST PUSH1 0x0 DUP3 SSTORE DUP1 PUSH1 0x1F LT PUSH2 0x1493 JUMPI POP PUSH2 0x14B2 JUMP JUMPDEST PUSH1 0x1F ADD PUSH1 0x20 SWAP1 DIV SWAP1 PUSH1 0x0 MSTORE PUSH1 0x20 PUSH1 0x0 KECCAK256 SWAP1 DUP2 ADD SWAP1 PUSH2 0x14B1 SWAP2 SWAP1 PUSH2 0x14B5 JUMP JUMPDEST JUMPDEST POP JUMP JUMPDEST JUMPDEST DUP1 DUP3 GT ISZERO PUSH2 0x14CE JUMPI PUSH1 0x0 DUP2 PUSH1 0x0 SWAP1 SSTORE POP PUSH1 0x1 ADD PUSH2 0x14B6 JUMP JUMPDEST POP SWAP1 JUMP JUMPDEST PUSH1 0x0 PUSH1 0x40 MLOAD SWAP1 POP SWAP1 JUMP JUMPDEST PUSH1 0x0 DUP1 REVERT JUMPDEST PUSH1 0x0 DUP1 REVERT JUMPDEST PUSH1 0x0 DUP2 SWAP1 POP SWAP2 SWAP1 POP JUMP JUMPDEST PUSH2 0x14F9 DUP2 PUSH2 0x14E6 JUMP JUMPDEST DUP2 EQ PUSH2 0x1504 JUMPI PUSH1 0x0 DUP1 REVERT JUMPDEST POP JUMP JUMPDEST PUSH1 0x0 DUP2 CALLDATALOAD SWAP1 POP PUSH2 0x1516 DUP2 PUSH2 0x14F0 JUMP JUMPDEST SWAP3 SWAP2 POP POP JUMP JUMPDEST PUSH1 0x0 DUP1 REVERT JUMPDEST PUSH1 0x0 PUSH1 0x40 DUP3 DUP5 SUB SLT ISZERO PUSH2 0x1537 JUMPI PUSH2 0x1536 PUSH2 0x151C JUMP JUMPDEST JUMPDEST DUP2 SWAP1 POP SWAP3 SWAP2 POP POP JUMP JUMPDEST PUSH1 0x0 DUP1 PUSH1 0x40 DUP4 DUP6 SUB SLT ISZERO PUSH2 0x1557 JUMPI PUSH2 0x1556 PUSH2 0x14DC JUMP JUMPDEST JUMPDEST PUSH1 0x0 PUSH2 0x1565 DUP6 DUP3 DUP7 ADD PUSH2 0x1507 JUMP JUMPDEST SWAP3 POP POP PUSH1 0x20 DUP4 ADD CALLDATALOAD PUSH8 0xFFFFFFFFFFFFFFFF DUP2 GT ISZERO PUSH2 0x1586 JUMPI PUSH2 0x1585 PUSH2 0x14E1 JUMP JUMPDEST JUMPDEST PUSH2 0x1592 DUP6 DUP3 DUP7 ADD PUSH2 0x1521 JUMP JUMPDEST SWAP2 POP POP SWAP3 POP SWAP3 SWAP1 POP JUMP JUMPDEST PUSH1 0x0 PUSH1 0x20 DUP3 DUP5 SUB SLT ISZERO PUSH2 0x15B2 JUMPI PUSH2 0x15B1 PUSH2 0x14DC JUMP JUMPDEST JUMPDEST PUSH1 0x0 PUSH2 0x15C0 DUP5 DUP3 DUP6 ADD PUSH2 0x1507 JUMP JUMPDEST SWAP2 POP POP SWAP3 SWAP2 POP POP JUMP JUMPDEST PUSH1 0x0 DUP2 MLOAD SWAP1 POP SWAP2 SWAP1 POP JUMP JUMPDEST PUSH1 0x0 DUP3 DUP3 MSTORE PUSH1 0x20 DUP3 ADD SWAP1 POP SWAP3 SWAP2 POP POP JUMP JUMPDEST PUSH1 0x0 JUMPDEST DUP4 DUP2 LT ISZERO PUSH2 0x1603 JUMPI DUP1 DUP3 ADD MLOAD DUP2 DUP5 ADD MSTORE PUSH1 0x20 DUP2 ADD SWAP1 POP PUSH2 0x15E8 JUMP JUMPDEST PUSH1 0x0 DUP5 DUP5 ADD MSTORE POP POP POP POP JUMP JUMPDEST PUSH1 0x0 PUSH1 0x1F NOT PUSH1 0x1F DUP4 ADD AND SWAP1 POP SWAP2 SWAP1 POP JUMP JUMPDEST PUSH1 0x0 PUSH2 0x162B DUP3 PUSH2 0x15C9 JUMP JUMPDEST PUSH2 0x1635 DUP2 DUP6 PUSH2 0x15D4 JUMP JUMPDEST SWAP4 POP PUSH2 0x1645 DUP2 DUP6 PUSH1 0x20 DUP7 ADD PUSH2 0x15E5 JUMP JUMPDEST PUSH2 0x164E DUP2 PUSH2 0x160F JUMP JUMPDEST DUP5 ADD SWAP2 POP POP SWAP3 SWAP2 POP POP JUMP JUMPDEST PUSH1 0x0 PUSH1 0x20 DUP3 ADD SWAP1 POP DUP2 DUP2 SUB PUSH1 0x0 DUP4 ADD MSTORE PUSH2 0x1673 DUP2 DUP5 PUSH2 0x1620 JUMP JUMPDEST SWAP1 POP SWAP3 SWAP2 POP POP JUMP JUMPDEST PUSH2 0x1684 DUP2 PUSH2 0x14E6 JUMP JUMPDEST DUP3 MSTORE POP POP JUMP JUMPDEST PUSH1 0x0 PUSH1 0x20 DUP3 ADD SWAP1 POP PUSH2 0x169F PUSH1 0x0 DUP4 ADD DUP5 PUSH2 0x167B JUMP JUMPDEST SWAP3 SWAP2 POP POP JUMP JUMPDEST PUSH1 0x0 PUSH20 0xFFFFFFFFFFFFFFFFFFFFFFFFFFFFFFFFFFFFFFFF DUP3 AND SWAP1 POP SWAP2 SWAP1 POP JUMP JUMPDEST PUSH1 0x0 DUP2 SWAP1 POP SWAP2 SWAP1 POP JUMP JUMPDEST PUSH1 0x0 PUSH2 0x16EA PUSH2 0x16E5 PUSH2 0x16E0 DUP5 PUSH2 0x16A5 JUMP JUMPDEST PUSH2 0x16C5 JUMP JUMPDEST PUSH2 0x16A5 JUMP JUMPDEST SWAP1 POP SWAP2 SWAP1 POP JUMP JUMPDEST PUSH1 0x0 PUSH2 0x16FC DUP3 PUSH2 0x16CF JUMP JUMPDEST SWAP1 POP SWAP2 SWAP1 POP JUMP JUMPDEST PUSH1 0x0 PUSH2 0x170E DUP3 PUSH2 0x16F1 JUMP JUMPDEST SWAP1 POP SWAP2 SWAP1 POP JUMP JUMPDEST PUSH2 0x171E DUP2 PUSH2 0x1703 JUMP JUMPDEST DUP3 MSTORE POP POP JUMP JUMPDEST PUSH1 0x0 PUSH1 0x20 DUP3 ADD SWAP1 POP PUSH2 0x1739 PUSH1 0x0 DUP4 ADD DUP5 PUSH2 0x1715 JUMP JUMPDEST SWAP3 SWAP2 POP POP JUMP JUMPDEST PUSH1 0x0 PUSH2 0x174A DUP3 PUSH2 0x16A5 JUMP JUMPDEST SWAP1 POP SWAP2 SWAP1 POP JUMP JUMPDEST PUSH2 0x175A DUP2 PUSH2 0x173F JUMP JUMPDEST DUP2 EQ PUSH2 0x1765 JUMPI PUSH1 0x0 DUP1 REVERT JUMPDEST POP JUMP JUMPDEST PUSH1 0x0 DUP2 CALLDATALOAD SWAP1 POP PUSH2 0x1777 DUP2 PUSH2 0x1751 JUMP JUMPDEST SWAP3 SWAP2 POP POP JUMP JUMPDEST PUSH1 0x0 PUSH1 0x20 DUP3 DUP5 SUB SLT ISZERO PUSH2 0x1793 JUMPI PUSH2 0x1792 PUSH2 0x14DC JUMP JUMPDEST JUMPDEST PUSH1 0x0 PUSH2 0x17A1 DUP5 DUP3 DUP6 ADD PUSH2 0x1768 JUMP JUMPDEST SWAP2 POP POP SWAP3 SWAP2 POP POP JUMP JUMPDEST PUSH1 0x0 DUP1 REVERT JUMPDEST PUSH1 0x0 DUP1 REVERT JUMPDEST PUSH32 0x4E487B7100000000000000000000000000000000000000000000000000000000 PUSH1 0x0 MSTORE PUSH1 0x41 PUSH1 0x4 MSTORE PUSH1 0x24 PUSH1 0x0 REVERT JUMPDEST PUSH2 0x17EC DUP3 PUSH2 0x160F JUMP JUMPDEST DUP2 ADD DUP2 DUP2 LT PUSH8 0xFFFFFFFFFFFFFFFF DUP3 GT OR ISZERO PUSH2 0x180B JUMPI PUSH2 0x180A PUSH2 0x17B4 JUMP JUMPDEST JUMPDEST DUP1 PUSH1 0x40 MSTORE POP POP POP JUMP JUMPDEST PUSH1 0x0 PUSH2 0x181E PUSH2 0x14D2 JUMP JUMPDEST SWAP1 POP PUSH2 0x182A DUP3 DUP3 PUSH2 0x17E3 JUMP JUMPDEST SWAP2 SWAP1 POP JUMP JUMPDEST PUSH1 0x0 PUSH8 0xFFFFFFFFFFFFFFFF DUP3 GT ISZERO PUSH2 0x184A JUMPI PUSH2 0x1849 PUSH2 0x17B4 JUMP JUMPDEST JUMPDEST PUSH2 0x1853 DUP3 PUSH2 0x160F JUMP JUMPDEST SWAP1 POP PUSH1 0x20 DUP2 ADD SWAP1 POP SWAP2 SWAP1 POP JUMP JUMPDEST DUP3 DUP2 DUP4 CALLDATACOPY PUSH1 0x0 DUP4 DUP4 ADD MSTORE POP POP POP JUMP JUMPDEST PUSH1 0x0 PUSH2 0x1882 PUSH2 0x187D DUP5 PUSH2 0x182F JUMP JUMPDEST PUSH2 0x1814 JUMP JUMPDEST SWAP1 POP DUP3 DUP2 MSTORE PUSH1 0x20 DUP2 ADD DUP5 DUP5 DUP5 ADD GT ISZERO PUSH2 0x189E JUMPI PUSH2 0x189D PUSH2 0x17AF JUMP JUMPDEST JUMPDEST PUSH2 0x18A9 DUP5 DUP3 DUP6 PUSH2 0x1860 JUMP JUMPDEST POP SWAP4 SWAP3 POP POP POP JUMP JUMPDEST PUSH1 0x0 DUP3 PUSH1 0x1F DUP4 ADD SLT PUSH2 0x18C6 JUMPI PUSH2 0x18C5 PUSH2 0x17AA JUMP JUMPDEST JUMPDEST DUP2 CALLDATALOAD PUSH2 0x18D6 DUP5 DUP3 PUSH1 0x20 DUP7 ADD PUSH2 0x186F JUMP JUMPDEST SWAP2 POP POP SWAP3 SWAP2 POP POP JUMP JUMPDEST PUSH1 0x0 DUP1 PUSH1 0x40 DUP4 DUP6 SUB SLT ISZERO PUSH2 0x18F6 JUMPI PUSH2 0x18F5 PUSH2 0x14DC JUMP JUMPDEST JUMPDEST PUSH1 0x0 DUP4 ADD CALLDATALOAD PUSH8 0xFFFFFFFFFFFFFFFF DUP2 GT ISZERO PUSH2 0x1914 JUMPI PUSH2 0x1913 PUSH2 0x14E1 JUMP JUMPDEST JUMPDEST PUSH2 0x1920 DUP6 DUP3 DUP7 ADD PUSH2 0x18B1 JUMP JUMPDEST SWAP3 POP POP PUSH1 0x20 DUP4 ADD CALLDATALOAD PUSH8 0xFFFFFFFFFFFFFFFF DUP2 GT ISZERO PUSH2 0x1941 JUMPI PUSH2 0x1940 PUSH2 0x14E1 JUMP JUMPDEST JUMPDEST PUSH2 0x194D DUP6 DUP3 DUP7 ADD PUSH2 0x18B1 JUMP JUMPDEST SWAP2 POP POP SWAP3 POP SWAP3 SWAP1 POP JUMP JUMPDEST PUSH1 0x0 PUSH2 0x1962 DUP3 PUSH2 0x16F1 JUMP JUMPDEST SWAP1 POP SWAP2 SWAP1 POP JUMP JUMPDEST PUSH2 0x1972 DUP2 PUSH2 0x1957 JUMP JUMPDEST DUP3 MSTORE POP POP JUMP JUMPDEST PUSH1 0x0 PUSH1 0x20 DUP3 ADD SWAP1 POP PUSH2 0x198D PUSH1 0x0 DUP4 ADD DUP5 PUSH2 0x1969 JUMP JUMPDEST SWAP3 SWAP2 POP POP JUMP JUMPDEST PUSH2 0x199C DUP2 PUSH2 0x173F JUMP JUMPDEST DUP3 MSTORE POP POP JUMP JUMPDEST PUSH1 0x0 PUSH1 0x20 DUP3 ADD SWAP1 POP PUSH2 0x19B7 PUSH1 0x0 DUP4 ADD DUP5 PUSH2 0x1993 JUMP JUMPDEST SWAP3 SWAP2 POP POP JUMP JUMPDEST PUSH1 0x0 DUP2 ISZERO ISZERO SWAP1 POP SWAP2 SWAP1 POP JUMP JUMPDEST PUSH2 0x19D2 DUP2 PUSH2 0x19BD JUMP JUMPDEST DUP3 MSTORE POP POP JUMP JUMPDEST PUSH1 0x0 PUSH1 0x20 DUP3 ADD SWAP1 POP PUSH2 0x19ED PUSH1 0x0 DUP4 ADD DUP5 PUSH2 0x19C9 JUMP JUMPDEST SWAP3 SWAP2 POP POP JUMP JUMPDEST PUSH32 0x496E76616C696420726571756573742049440000000000000000000000000000 PUSH1 0x0 DUP3 ADD MSTORE POP JUMP JUMPDEST PUSH1 0x0 PUSH2 0x1A29 PUSH1 0x12 DUP4 PUSH2 0x15D4 JUMP JUMPDEST SWAP2 POP PUSH2 0x1A34 DUP3 PUSH2 0x19F3 JUMP JUMPDEST PUSH1 0x20 DUP3 ADD SWAP1 POP SWAP2 SWAP1 POP JUMP JUMPDEST PUSH1 0x0 PUSH1 0x20 DUP3 ADD SWAP1 POP DUP2 DUP2 SUB PUSH1 0x0 DUP4 ADD MSTORE PUSH2 0x1A58 DUP2 PUSH2 0x1A1C JUMP JUMPDEST SWAP1 POP SWAP2 SWAP1 POP JUMP JUMPDEST PUSH32 0x4E487B7100000000000000000000000000000000000000000000000000000000 PUSH1 0x0 MSTORE PUSH1 0x22 PUSH1 0x4 MSTORE PUSH1 0x24 PUSH1 0x0 REVERT JUMPDEST PUSH1 0x0 PUSH1 0x2 DUP3 DIV SWAP1 POP PUSH1 0x1 DUP3 AND DUP1 PUSH2 0x1AA6 JUMPI PUSH1 0x7F DUP3 AND SWAP2 POP JUMPDEST PUSH1 0x20 DUP3 LT DUP2 SUB PUSH2 0x1AB9 JUMPI PUSH2 0x1AB8 PUSH2 0x1A5F JUMP JUMPDEST JUMPDEST POP SWAP2 SWAP1 POP JUMP JUMPDEST PUSH1 0x0 DUP1 REVERT JUMPDEST PUSH1 0x0 DUP1 REVERT JUMPDEST PUSH1 0x0 DUP1 REVERT JUMPDEST PUSH1 0x0 DUP1 DUP4 CALLDATALOAD PUSH1 0x1 PUSH1 0x20 SUB DUP5 CALLDATASIZE SUB SUB DUP2 SLT PUSH2 0x1AEB JUMPI PUSH2 0x1AEA PUSH2 0x1AC9 JUMP JUMPDEST JUMPDEST DUP4 DUP2 ADD SWAP3 POP DUP3 CALLDATALOAD SWAP2 POP PUSH1 0x20 DUP4 ADD SWAP3 POP PUSH8 0xFFFFFFFFFFFFFFFF DUP3 GT ISZERO PUSH2 0x1B13 JUMPI PUSH2 0x1B12 PUSH2 0x1ABF JUMP JUMPDEST JUMPDEST PUSH1 0x20 DUP3 MUL CALLDATASIZE SUB DUP4 SGT ISZERO PUSH2 0x1B29 JUMPI PUSH2 0x1B28 PUSH2 0x1AC4 JUMP JUMPDEST JUMPDEST POP SWAP3 POP SWAP3 SWAP1 POP JUMP JUMPDEST PUSH1 0x0 DUP3 DUP3 MSTORE PUSH1 0x20 DUP3 ADD SWAP1 POP SWAP3 SWAP2 POP POP JUMP JUMPDEST PUSH1 0x0 DUP1 REVERT JUMPDEST DUP3 DUP2 DUP4 CALLDATACOPY POP POP POP JUMP JUMPDEST PUSH1 0x0 PUSH2 0x1B5C DUP4 DUP6 PUSH2 0x1B31 JUMP JUMPDEST SWAP4 POP PUSH32 0x7FFFFFFFFFFFFFFFFFFFFFFFFFFFFFFFFFFFFFFFFFFFFFFFFFFFFFFFFFFFFFF DUP4 GT ISZERO PUSH2 0x1B8F JUMPI PUSH2 0x1B8E PUSH2 0x1B42 JUMP JUMPDEST JUMPDEST PUSH1 0x20 DUP4 MUL SWAP3 POP PUSH2 0x1BA0 DUP4 DUP6 DUP5 PUSH2 0x1B47 JUMP JUMPDEST DUP3 DUP5 ADD SWAP1 POP SWAP4 SWAP3 POP POP POP JUMP JUMPDEST PUSH1 0x0 DUP3 CALLDATALOAD PUSH1 0x1 PUSH1 0xC0 SUB DUP4 CALLDATASIZE SUB SUB DUP2 SLT PUSH2 0x1BC8 JUMPI PUSH2 0x1BC7 PUSH2 0x1AC9 JUMP JUMPDEST JUMPDEST DUP3 DUP2 ADD SWAP2 POP POP SWAP3 SWAP2 POP POP JUMP JUMPDEST PUSH1 0x0 PUSH2 0x1BE3 PUSH1 0x20 DUP5 ADD DUP5 PUSH2 0x1507 JUMP JUMPDEST SWAP1 POP SWAP3 SWAP2 POP POP JUMP JUMPDEST PUSH2 0x1BF4 DUP2 PUSH2 0x14E6 JUMP JUMPDEST DUP3 MSTORE POP POP JUMP JUMPDEST PUSH1 0x0 PUSH8 0xFFFFFFFFFFFFFFFF DUP3 AND SWAP1 POP SWAP2 SWAP1 POP JUMP JUMPDEST PUSH2 0x1C17 DUP2 PUSH2 0x1BFA JUMP JUMPDEST DUP2 EQ PUSH2 0x1C22 JUMPI PUSH1 0x0 DUP1 REVERT JUMPDEST POP JUMP JUMPDEST PUSH1 0x0 DUP2 CALLDATALOAD SWAP1 POP PUSH2 0x1C34 DUP2 PUSH2 0x1C0E JUMP JUMPDEST SWAP3 SWAP2 POP POP JUMP JUMPDEST PUSH1 0x0 PUSH2 0x1C49 PUSH1 0x20 DUP5 ADD DUP5 PUSH2 0x1C25 JUMP JUMPDEST SWAP1 POP SWAP3 SWAP2 POP POP JUMP JUMPDEST PUSH2 0x1C5A DUP2 PUSH2 0x1BFA JUMP JUMPDEST DUP3 MSTORE POP POP JUMP JUMPDEST PUSH1 0x0 DUP3 CALLDATALOAD PUSH1 0x1 PUSH1 0xE0 SUB DUP4 CALLDATASIZE SUB SUB DUP2 SLT PUSH2 0x1C7C JUMPI PUSH2 0x1C7B PUSH2 0x1AC9 JUMP JUMPDEST JUMPDEST DUP3 DUP2 ADD SWAP2 POP POP SWAP3 SWAP2 POP POP JUMP JUMPDEST PUSH1 0x0 DUP1 DUP4 CALLDATALOAD PUSH1 0x1 PUSH1 0x20 SUB DUP5 CALLDATASIZE SUB SUB DUP2 SLT PUSH2 0x1CA5 JUMPI PUSH2 0x1CA4 PUSH2 0x1AC9 JUMP JUMPDEST JUMPDEST DUP4 DUP2 ADD SWAP3 POP DUP3 CALLDATALOAD SWAP2 POP PUSH1 0x20 DUP4 ADD SWAP3 POP PUSH8 0xFFFFFFFFFFFFFFFF DUP3 GT ISZERO PUSH2 0x1CCD JUMPI PUSH2 0x1CCC PUSH2 0x1ABF JUMP JUMPDEST JUMPDEST PUSH1 0x1 DUP3 MUL CALLDATASIZE SUB DUP4 SGT ISZERO PUSH2 0x1CE3 JUMPI PUSH2 0x1CE2 PUSH2 0x1AC4 JUMP JUMPDEST JUMPDEST POP SWAP3 POP SWAP3 SWAP1 POP JUMP JUMPDEST PUSH1 0x0 DUP3 DUP3 MSTORE PUSH1 0x20 DUP3 ADD SWAP1 POP SWAP3 SWAP2 POP POP JUMP JUMPDEST PUSH1 0x0 PUSH2 0x1D08 DUP4 DUP6 PUSH2 0x1CEB JUMP JUMPDEST SWAP4 POP PUSH2 0x1D15 DUP4 DUP6 DUP5 PUSH2 0x1860 JUMP JUMPDEST PUSH2 0x1D1E DUP4 PUSH2 0x160F JUMP JUMPDEST DUP5 ADD SWAP1 POP SWAP4 SWAP3 POP POP POP JUMP JUMPDEST PUSH1 0x0 PUSH1 0xE0 DUP4 ADD PUSH2 0x1D3C PUSH1 0x0 DUP5 ADD DUP5 PUSH2 0x1C88 JUMP JUMPDEST DUP6 DUP4 SUB PUSH1 0x0 DUP8 ADD MSTORE PUSH2 0x1D4F DUP4 DUP3 DUP5 PUSH2 0x1CFC JUMP JUMPDEST SWAP3 POP POP POP PUSH2 0x1D60 PUSH1 0x20 DUP5 ADD DUP5 PUSH2 0x1C88 JUMP JUMPDEST DUP6 DUP4 SUB PUSH1 0x20 DUP8 ADD MSTORE PUSH2 0x1D73 DUP4 DUP3 DUP5 PUSH2 0x1CFC JUMP JUMPDEST SWAP3 POP POP POP PUSH2 0x1D84 PUSH1 0x40 DUP5 ADD DUP5 PUSH2 0x1C88 JUMP JUMPDEST DUP6 DUP4 SUB PUSH1 0x40 DUP8 ADD MSTORE PUSH2 0x1D97 DUP4 DUP3 DUP5 PUSH2 0x1CFC JUMP JUMPDEST SWAP3 POP POP POP PUSH2 0x1DA8 PUSH1 0x60 DUP5 ADD DUP5 PUSH2 0x1C88 JUMP JUMPDEST DUP6 DUP4 SUB PUSH1 0x60 DUP8 ADD MSTORE PUSH2 0x1DBB DUP4 DUP3 DUP5 PUSH2 0x1CFC JUMP JUMPDEST SWAP3 POP POP POP PUSH2 0x1DCC PUSH1 0x80 DUP5 ADD DUP5 PUSH2 0x1C88 JUMP JUMPDEST DUP6 DUP4 SUB PUSH1 0x80 DUP8 ADD MSTORE PUSH2 0x1DDF DUP4 DUP3 DUP5 PUSH2 0x1CFC JUMP JUMPDEST SWAP3 POP POP POP PUSH2 0x1DF0 PUSH1 0xA0 DUP5 ADD DUP5 PUSH2 0x1C88 JUMP JUMPDEST DUP6 DUP4 SUB PUSH1 0xA0 DUP8 ADD MSTORE PUSH2 0x1E03 DUP4 DUP3 DUP5 PUSH2 0x1CFC JUMP JUMPDEST SWAP3 POP POP POP PUSH2 0x1E14 PUSH1 0xC0 DUP5 ADD DUP5 PUSH2 0x1C88 JUMP JUMPDEST DUP6 DUP4 SUB PUSH1 0xC0 DUP8 ADD MSTORE PUSH2 0x1E27 DUP4 DUP3 DUP5 PUSH2 0x1CFC JUMP JUMPDEST SWAP3 POP POP POP DUP1 SWAP2 POP POP SWAP3 SWAP2 POP POP JUMP JUMPDEST PUSH1 0x0 DUP3 CALLDATALOAD PUSH1 0x1 PUSH1 0x20 SUB DUP4 CALLDATASIZE SUB SUB DUP2 SLT PUSH2 0x1E51 JUMPI PUSH2 0x1E50 PUSH2 0x1AC9 JUMP JUMPDEST JUMPDEST DUP3 DUP2 ADD SWAP2 POP POP SWAP3 SWAP2 POP POP JUMP JUMPDEST PUSH1 0x0 DUP1 DUP4 CALLDATALOAD PUSH1 0x1 PUSH1 0x20 SUB DUP5 CALLDATASIZE SUB SUB DUP2 SLT PUSH2 0x1E7A JUMPI PUSH2 0x1E79 PUSH2 0x1AC9 JUMP JUMPDEST JUMPDEST DUP4 DUP2 ADD SWAP3 POP DUP3 CALLDATALOAD SWAP2 POP PUSH1 0x20 DUP4 ADD SWAP3 POP PUSH8 0xFFFFFFFFFFFFFFFF DUP3 GT ISZERO PUSH2 0x1EA2 JUMPI PUSH2 0x1EA1 PUSH2 0x1ABF JUMP JUMPDEST JUMPDEST PUSH1 0x1 DUP3 MUL CALLDATASIZE SUB DUP4 SGT ISZERO PUSH2 0x1EB8 JUMPI PUSH2 0x1EB7 PUSH2 0x1AC4 JUMP JUMPDEST JUMPDEST POP SWAP3 POP SWAP3 SWAP1 POP JUMP JUMPDEST PUSH1 0x0 DUP3 DUP3 MSTORE PUSH1 0x20 DUP3 ADD SWAP1 POP SWAP3 SWAP2 POP POP JUMP JUMPDEST PUSH1 0x0 PUSH2 0x1EDD DUP4 DUP6 PUSH2 0x1EC0 JUMP JUMPDEST SWAP4 POP PUSH2 0x1EEA DUP4 DUP6 DUP5 PUSH2 0x1860 JUMP JUMPDEST PUSH2 0x1EF3 DUP4 PUSH2 0x160F JUMP JUMPDEST DUP5 ADD SWAP1 POP SWAP4 SWAP3 POP POP POP JUMP JUMPDEST PUSH1 0x0 PUSH1 0x20 DUP4 ADD PUSH2 0x1F11 PUSH1 0x0 DUP5 ADD DUP5 PUSH2 0x1E5D JUMP JUMPDEST DUP6 DUP4 SUB PUSH1 0x0 DUP8 ADD MSTORE PUSH2 0x1F24 DUP4 DUP3 DUP5 PUSH2 0x1ED1 JUMP JUMPDEST SWAP3 POP POP POP DUP1 SWAP2 POP POP SWAP3 SWAP2 POP POP JUMP JUMPDEST PUSH1 0x0 PUSH1 0xC0 DUP4 ADD PUSH2 0x1F45 PUSH1 0x0 DUP5 ADD DUP5 PUSH2 0x1BD4 JUMP JUMPDEST PUSH2 0x1F52 PUSH1 0x0 DUP7 ADD DUP3 PUSH2 0x1BEB JUMP JUMPDEST POP PUSH2 0x1F60 PUSH1 0x20 DUP5 ADD DUP5 PUSH2 0x1BD4 JUMP JUMPDEST PUSH2 0x1F6D PUSH1 0x20 DUP7 ADD DUP3 PUSH2 0x1BEB JUMP JUMPDEST POP PUSH2 0x1F7B PUSH1 0x40 DUP5 ADD DUP5 PUSH2 0x1C3A JUMP JUMPDEST PUSH2 0x1F88 PUSH1 0x40 DUP7 ADD DUP3 PUSH2 0x1C51 JUMP JUMPDEST POP PUSH2 0x1F96 PUSH1 0x60 DUP5 ADD DUP5 PUSH2 0x1C3A JUMP JUMPDEST PUSH2 0x1FA3 PUSH1 0x60 DUP7 ADD DUP3 PUSH2 0x1C51 JUMP JUMPDEST POP PUSH2 0x1FB1 PUSH1 0x80 DUP5 ADD DUP5 PUSH2 0x1C60 JUMP JUMPDEST DUP5 DUP3 SUB PUSH1 0x80 DUP7 ADD MSTORE PUSH2 0x1FC3 DUP3 DUP3 PUSH2 0x1D29 JUMP JUMPDEST SWAP2 POP POP PUSH2 0x1FD3 PUSH1 0xA0 DUP5 ADD DUP5 PUSH2 0x1E35 JUMP JUMPDEST DUP5 DUP3 SUB PUSH1 0xA0 DUP7 ADD MSTORE PUSH2 0x1FE5 DUP3 DUP3 PUSH2 0x1EFE JUMP JUMPDEST SWAP2 POP POP DUP1 SWAP2 POP POP SWAP3 SWAP2 POP POP JUMP JUMPDEST PUSH1 0x0 PUSH1 0x40 DUP4 ADD PUSH2 0x2005 PUSH1 0x0 DUP5 ADD DUP5 PUSH2 0x1ACE JUMP JUMPDEST DUP6 DUP4 SUB PUSH1 0x0 DUP8 ADD MSTORE PUSH2 0x2018 DUP4 DUP3 DUP5 PUSH2 0x1B50 JUMP JUMPDEST SWAP3 POP POP POP PUSH2 0x2029 PUSH1 0x20 DUP5 ADD DUP5 PUSH2 0x1BAC JUMP JUMPDEST DUP5 DUP3 SUB PUSH1 0x20 DUP7 ADD MSTORE PUSH2 0x203B DUP3 DUP3 PUSH2 0x1F32 JUMP JUMPDEST SWAP2 POP POP DUP1 SWAP2 POP POP SWAP3 SWAP2 POP POP JUMP JUMPDEST PUSH1 0x0 PUSH1 0x20 DUP3 ADD SWAP1 POP DUP2 DUP2 SUB PUSH1 0x0 DUP4 ADD MSTORE PUSH2 0x2062 DUP2 DUP5 PUSH2 0x1FF2 JUMP JUMPDEST SWAP1 POP SWAP3 SWAP2 POP POP JUMP JUMPDEST PUSH2 0x2073 DUP2 PUSH2 0x19BD JUMP JUMPDEST DUP2 EQ PUSH2 0x207E JUMPI PUSH1 0x0 DUP1 REVERT JUMPDEST POP JUMP JUMPDEST PUSH1 0x0 DUP2 MLOAD SWAP1 POP PUSH2 0x2090 DUP2 PUSH2 0x206A JUMP JUMPDEST SWAP3 SWAP2 POP POP JUMP JUMPDEST PUSH1 0x0 PUSH1 0x20 DUP3 DUP5 SUB SLT ISZERO PUSH2 0x20AC JUMPI PUSH2 0x20AB PUSH2 0x14DC JUMP JUMPDEST JUMPDEST PUSH1 0x0 PUSH2 0x20BA DUP5 DUP3 DUP6 ADD PUSH2 0x2081 JUMP JUMPDEST SWAP2 POP POP SWAP3 SWAP2 POP POP JUMP JUMPDEST PUSH32 0x46444320766572696669636174696F6E206661696C6564000000000000000000 PUSH1 0x0 DUP3 ADD MSTORE POP JUMP JUMPDEST PUSH1 0x0 PUSH2 0x20F9 PUSH1 0x17 DUP4 PUSH2 0x15D4 JUMP JUMPDEST SWAP2 POP PUSH2 0x2104 DUP3 PUSH2 0x20C3 JUMP JUMPDEST PUSH1 0x20 DUP3 ADD SWAP1 POP SWAP2 SWAP1 POP JUMP JUMPDEST PUSH1 0x0 PUSH1 0x20 DUP3 ADD SWAP1 POP DUP2 DUP2 SUB PUSH1 0x0 DUP4 ADD MSTORE PUSH2 0x2128 DUP2 PUSH2 0x20EC JUMP JUMPDEST SWAP1 POP SWAP2 SWAP1 POP JUMP JUMPDEST PUSH1 0x0 DUP1 REVERT JUMPDEST PUSH1 0x0 DUP1 REVERT JUMPDEST PUSH1 0x0 DUP1 REVERT JUMPDEST PUSH1 0x0 DUP3 CALLDATALOAD PUSH1 0x1 PUSH1 0xC0 SUB DUP4 CALLDATASIZE SUB SUB DUP2 SLT PUSH2 0x215A JUMPI PUSH2 0x2159 PUSH2 0x212F JUMP JUMPDEST JUMPDEST DUP1 DUP4 ADD SWAP2 POP POP SWAP3 SWAP2 POP POP JUMP JUMPDEST PUSH32 0x57726F6E67206174746573746174696F6E207479706500000000000000000000 PUSH1 0x0 DUP3 ADD MSTORE POP JUMP JUMPDEST PUSH1 0x0 PUSH2 0x219C PUSH1 0x16 DUP4 PUSH2 0x15D4 JUMP JUMPDEST SWAP2 POP PUSH2 0x21A7 DUP3 PUSH2 0x2166 JUMP JUMPDEST PUSH1 0x20 DUP3 ADD SWAP1 POP SWAP2 SWAP1 POP JUMP JUMPDEST PUSH1 0x0 PUSH1 0x20 DUP3 ADD SWAP1 POP DUP2 DUP2 SUB PUSH1 0x0 DUP4 ADD MSTORE PUSH2 0x21CB DUP2 PUSH2 0x218F JUMP JUMPDEST SWAP1 POP SWAP2 SWAP1 POP JUMP JUMPDEST PUSH32 0x57726F6E6720736F757263652049440000000000000000000000000000000000 PUSH1 0x0 DUP3 ADD MSTORE POP JUMP JUMPDEST PUSH1 0x0 PUSH2 0x2208 PUSH1 0xF DUP4 PUSH2 0x15D4 JUMP JUMPDEST SWAP2 POP PUSH2 0x2213 DUP3 PUSH2 0x21D2 JUMP JUMPDEST PUSH1 0x20 DUP3 ADD SWAP1 POP SWAP2 SWAP1 POP JUMP JUMPDEST PUSH1 0x0 PUSH1 0x20 DUP3 ADD SWAP1 POP DUP2 DUP2 SUB PUSH1 0x0 DUP4 ADD MSTORE PUSH2 0x2237 DUP2 PUSH2 0x21FB JUMP JUMPDEST SWAP1 POP SWAP2 SWAP1 POP JUMP JUMPDEST PUSH1 0x0 DUP3 CALLDATALOAD PUSH1 0x1 PUSH1 0x20 SUB DUP4 CALLDATASIZE SUB SUB DUP2 SLT PUSH2 0x225A JUMPI PUSH2 0x2259 PUSH2 0x212F JUMP JUMPDEST JUMPDEST DUP1 DUP4 ADD SWAP2 POP POP SWAP3 SWAP2 POP POP JUMP JUMPDEST PUSH1 0x0 DUP1 DUP4 CALLDATALOAD PUSH1 0x1 PUSH1 0x20 SUB DUP5 CALLDATASIZE SUB SUB DUP2 SLT PUSH2 0x2283 JUMPI PUSH2 0x2282 PUSH2 0x212F JUMP JUMPDEST JUMPDEST DUP1 DUP5 ADD SWAP3 POP DUP3 CALLDATALOAD SWAP2 POP PUSH8 0xFFFFFFFFFFFFFFFF DUP3 GT ISZERO PUSH2 0x22A5 JUMPI PUSH2 0x22A4 PUSH2 0x2134 JUMP JUMPDEST JUMPDEST PUSH1 0x20 DUP4 ADD SWAP3 POP PUSH1 0x1 DUP3 MUL CALLDATASIZE SUB DUP4 SGT ISZERO PUSH2 0x22C1 JUMPI PUSH2 0x22C0 PUSH2 0x2139 JUMP JUMPDEST JUMPDEST POP SWAP3 POP SWAP3 SWAP1 POP JUMP JUMPDEST PUSH1 0x0 PUSH1 0x20 DUP3 DUP5 SUB SLT ISZERO PUSH2 0x22DF JUMPI PUSH2 0x22DE PUSH2 0x14DC JUMP JUMPDEST JUMPDEST PUSH1 0x0 DUP3 ADD CALLDATALOAD PUSH8 0xFFFFFFFFFFFFFFFF DUP2 GT ISZERO PUSH2 0x22FD JUMPI PUSH2 0x22FC PUSH2 0x14E1 JUMP JUMPDEST JUMPDEST PUSH2 0x2309 DUP5 DUP3 DUP6 ADD PUSH2 0x18B1 JUMP JUMPDEST SWAP2 POP POP SWAP3 SWAP2 POP POP JUMP JUMPDEST PUSH1 0x0 DUP2 SWAP1 POP DUP2 PUSH1 0x0 MSTORE PUSH1 0x20 PUSH1 0x0 KECCAK256 SWAP1 POP SWAP2 SWAP1 POP JUMP JUMPDEST PUSH1 0x0 PUSH1 0x20 PUSH1 0x1F DUP4 ADD DIV SWAP1 POP SWAP2 SWAP1 POP JUMP JUMPDEST PUSH1 0x0 DUP3 DUP3 SHL SWAP1 POP SWAP3 SWAP2 POP POP JUMP JUMPDEST PUSH1 0x0 PUSH1 0x8 DUP4 MUL PUSH2 0x2374 PUSH32 0xFFFFFFFFFFFFFFFFFFFFFFFFFFFFFFFFFFFFFFFFFFFFFFFFFFFFFFFFFFFFFFFF DUP3 PUSH2 0x2337 JUMP JUMPDEST PUSH2 0x237E DUP7 DUP4 PUSH2 0x2337 JUMP JUMPDEST SWAP6 POP DUP1 NOT DUP5 AND SWAP4 POP DUP1 DUP7 AND DUP5 OR SWAP3 POP POP POP SWAP4 SWAP3 POP POP POP JUMP JUMPDEST PUSH1 0x0 DUP2 SWAP1 POP SWAP2 SWAP1 POP JUMP JUMPDEST PUSH1 0x0 PUSH2 0x23BB PUSH2 0x23B6 PUSH2 0x23B1 DUP5 PUSH2 0x2396 JUMP JUMPDEST PUSH2 0x16C5 JUMP JUMPDEST PUSH2 0x2396 JUMP JUMPDEST SWAP1 POP SWAP2 SWAP1 POP JUMP JUMPDEST PUSH1 0x0 DUP2 SWAP1 POP SWAP2 SWAP1 POP JUMP JUMPDEST PUSH2 0x23D5 DUP4 PUSH2 0x23A0 JUMP JUMPDEST PUSH2 0x23E9 PUSH2 0x23E1 DUP3 PUSH2 0x23C2 JUMP JUMPDEST DUP5 DUP5 SLOAD PUSH2 0x2344 JUMP JUMPDEST DUP3 SSTORE POP POP POP POP JUMP JUMPDEST PUSH1 0x0 SWAP1 JUMP JUMPDEST PUSH2 0x23FE PUSH2 0x23F1 JUMP JUMPDEST PUSH2 0x2409 DUP2 DUP5 DUP5 PUSH2 0x23CC JUMP JUMPDEST POP POP POP JUMP JUMPDEST JUMPDEST DUP2 DUP2 LT ISZERO PUSH2 0x242D JUMPI PUSH2 0x2422 PUSH1 0x0 DUP3 PUSH2 0x23F6 JUMP JUMPDEST PUSH1 0x1 DUP2 ADD SWAP1 POP PUSH2 0x240F JUMP JUMPDEST POP POP JUMP JUMPDEST PUSH1 0x1F DUP3 GT ISZERO PUSH2 0x2472 JUMPI PUSH2 0x2443 DUP2 PUSH2 0x2312 JUMP JUMPDEST PUSH2 0x244C DUP5 PUSH2 0x2327 JUMP JUMPDEST DUP2 ADD PUSH1 0x20 DUP6 LT ISZERO PUSH2 0x245B JUMPI DUP2 SWAP1 POP JUMPDEST PUSH2 0x246F PUSH2 0x2467 DUP6 PUSH2 0x2327 JUMP JUMPDEST DUP4 ADD DUP3 PUSH2 0x240E JUMP JUMPDEST POP POP JUMPDEST POP POP POP JUMP JUMPDEST PUSH1 0x0 DUP3 DUP3 SHR SWAP1 POP SWAP3 SWAP2 POP POP JUMP JUMPDEST PUSH1 0x0 PUSH2 0x2495 PUSH1 0x0 NOT DUP5 PUSH1 0x8 MUL PUSH2 0x2477 JUMP JUMPDEST NOT DUP1 DUP4 AND SWAP2 POP POP SWAP3 SWAP2 POP POP JUMP JUMPDEST PUSH1 0x0 PUSH2 0x24AE DUP4 DUP4 PUSH2 0x2484 JUMP JUMPDEST SWAP2 POP DUP3 PUSH1 0x2 MUL DUP3 OR SWAP1 POP SWAP3 SWAP2 POP POP JUMP JUMPDEST PUSH2 0x24C7 DUP3 PUSH2 0x15C9 JUMP JUMPDEST PUSH8 0xFFFFFFFFFFFFFFFF DUP2 GT ISZERO PUSH2 0x24E0 JUMPI PUSH2 0x24DF PUSH2 0x17B4 JUMP JUMPDEST JUMPDEST PUSH2 0x24EA DUP3 SLOAD PUSH2 0x1A8E JUMP JUMPDEST PUSH2 0x24F5 DUP3 DUP3 DUP6 PUSH2 0x2431 JUMP JUMPDEST PUSH1 0x0 PUSH1 0x20 SWAP1 POP PUSH1 0x1F DUP4 GT PUSH1 0x1 DUP2 EQ PUSH2 0x2528 JUMPI PUSH1 0x0 DUP5 ISZERO PUSH2 0x2516 JUMPI DUP3 DUP8 ADD MLOAD SWAP1 POP JUMPDEST PUSH2 0x2520 DUP6 DUP3 PUSH2 0x24A2 JUMP JUMPDEST DUP7 SSTORE POP PUSH2 0x2588 JUMP JUMPDEST PUSH1 0x1F NOT DUP5 AND PUSH2 0x2536 DUP7 PUSH2 0x2312 JUMP JUMPDEST PUSH1 0x0 JUMPDEST DUP3 DUP2 LT ISZERO PUSH2 0x255E JUMPI DUP5 DUP10 ADD MLOAD DUP3 SSTORE PUSH1 0x1 DUP3 ADD SWAP2 POP PUSH1 0x20 DUP6 ADD SWAP5 POP PUSH1 0x20 DUP2 ADD SWAP1 POP PUSH2 0x2539 JUMP JUMPDEST DUP7 DUP4 LT ISZERO PUSH2 0x257B JUMPI DUP5 DUP10 ADD MLOAD PUSH2 0x2577 PUSH1 0x1F DUP10 AND DUP3 PUSH2 0x2484 JUMP JUMPDEST DUP4 SSTORE POP JUMPDEST PUSH1 0x1 PUSH1 0x2 DUP9 MUL ADD DUP9 SSTORE POP POP POP JUMPDEST POP POP POP POP POP POP JUMP JUMPDEST PUSH1 0x0 PUSH1 0x40 DUP3 ADD SWAP1 POP DUP2 DUP2 SUB PUSH1 0x0 DUP4 ADD MSTORE PUSH2 0x25AA DUP2 DUP6 PUSH2 0x1620 JUMP JUMPDEST SWAP1 POP DUP2 DUP2 SUB PUSH1 0x20 DUP4 ADD MSTORE PUSH2 0x25BE DUP2 DUP5 PUSH2 0x1620 JUMP JUMPDEST SWAP1 POP SWAP4 SWAP3 POP POP POP JUMP JUMPDEST PUSH32 0x55736572206E6F74207665726966696564000000000000000000000000000000 PUSH1 0x0 DUP3 ADD MSTORE POP JUMP JUMPDEST PUSH1 0x0 PUSH2 0x25FD PUSH1 0x11 DUP4 PUSH2 0x15D4 JUMP JUMPDEST SWAP2 POP PUSH2 0x2608 DUP3 PUSH2 0x25C7 JUMP JUMPDEST PUSH1 0x20 DUP3 ADD SWAP1 POP SWAP2 SWAP1 POP JUMP JUMPDEST PUSH1 0x0 PUSH1 0x20 DUP3 ADD SWAP1 POP DUP2 DUP2 SUB PUSH1 0x0 DUP4 ADD MSTORE PUSH2 0x262C DUP2 PUSH2 0x25F0 JUMP JUMPDEST SWAP1 POP SWAP2 SWAP1 POP JUMP JUMPDEST PUSH1 0x0 DUP2 SWAP1 POP SWAP3 SWAP2 POP POP JUMP JUMPDEST PUSH32 0x68747470733A2F2F6170692E782E636F6D2F322F7477656574732F0000000000 PUSH1 0x0 DUP3 ADD MSTORE POP JUMP JUMPDEST PUSH1 0x0 PUSH2 0x2674 PUSH1 0x1B DUP4 PUSH2 0x2633 JUMP JUMPDEST SWAP2 POP PUSH2 0x267F DUP3 PUSH2 0x263E JUMP JUMPDEST PUSH1 0x1B DUP3 ADD SWAP1 POP SWAP2 SWAP1 POP JUMP JUMPDEST PUSH1 0x0 PUSH2 0x2695 DUP3 PUSH2 0x15C9 JUMP JUMPDEST PUSH2 0x269F DUP2 DUP6 PUSH2 0x2633 JUMP JUMPDEST SWAP4 POP PUSH2 0x26AF DUP2 DUP6 PUSH1 0x20 DUP7 ADD PUSH2 0x15E5 JUMP JUMPDEST DUP1 DUP5 ADD SWAP2 POP POP SWAP3 SWAP2 POP POP JUMP JUMPDEST PUSH32 0x3F74776565742E6669656C64733D617574686F725F6964000000000000000000 PUSH1 0x0 DUP3 ADD MSTORE POP JUMP JUMPDEST PUSH1 0x0 PUSH2 0x26F1 PUSH1 0x17 DUP4 PUSH2 0x2633 JUMP JUMPDEST SWAP2 POP PUSH2 0x26FC DUP3 PUSH2 0x26BB JUMP JUMPDEST PUSH1 0x17 DUP3 ADD SWAP1 POP SWAP2 SWAP1 POP JUMP JUMPDEST PUSH1 0x0 PUSH2 0x2712 DUP3 PUSH2 0x2667 JUMP JUMPDEST SWAP2 POP PUSH2 0x271E DUP3 DUP5 PUSH2 0x268A JUMP JUMPDEST SWAP2 POP PUSH2 0x2729 DUP3 PUSH2 0x26E4 JUMP JUMPDEST SWAP2 POP DUP2 SWAP1 POP SWAP3 SWAP2 POP POP JUMP JUMPDEST PUSH1 0x0 PUSH2 0x273F DUP3 PUSH2 0x15C9 JUMP JUMPDEST PUSH2 0x2749 DUP2 DUP6 PUSH2 0x1CEB JUMP JUMPDEST SWAP4 POP PUSH2 0x2759 DUP2 DUP6 PUSH1 0x20 DUP7 ADD PUSH2 0x15E5 JUMP JUMPDEST PUSH2 0x2762 DUP2 PUSH2 0x160F JUMP JUMPDEST DUP5 ADD SWAP2 POP POP SWAP3 SWAP2 POP POP JUMP JUMPDEST PUSH1 0x0 PUSH1 0xE0 DUP4 ADD PUSH1 0x0 DUP4 ADD MLOAD DUP5 DUP3 SUB PUSH1 0x0 DUP7 ADD MSTORE PUSH2 0x278A DUP3 DUP3 PUSH2 0x2734 JUMP JUMPDEST SWAP2 POP POP PUSH1 0x20 DUP4 ADD MLOAD DUP5 DUP3 SUB PUSH1 0x20 DUP7 ADD MSTORE PUSH2 0x27A4 DUP3 DUP3 PUSH2 0x2734 JUMP JUMPDEST SWAP2 POP POP PUSH1 0x40 DUP4 ADD MLOAD DUP5 DUP3 SUB PUSH1 0x40 DUP7 ADD MSTORE PUSH2 0x27BE DUP3 DUP3 PUSH2 0x2734 JUMP JUMPDEST SWAP2 POP POP PUSH1 0x60 DUP4 ADD MLOAD DUP5 DUP3 SUB PUSH1 0x60 DUP7 ADD MSTORE PUSH2 0x27D8 DUP3 DUP3 PUSH2 0x2734 JUMP JUMPDEST SWAP2 POP POP PUSH1 0x80 DUP4 ADD MLOAD DUP5 DUP3 SUB PUSH1 0x80 DUP7 ADD MSTORE PUSH2 0x27F2 DUP3 DUP3 PUSH2 0x2734 JUMP JUMPDEST SWAP2 POP POP PUSH1 0xA0 DUP4 ADD MLOAD DUP5 DUP3 SUB PUSH1 0xA0 DUP7 ADD MSTORE PUSH2 0x280C DUP3 DUP3 PUSH2 0x2734 JUMP JUMPDEST SWAP2 POP POP PUSH1 0xC0 DUP4 ADD MLOAD DUP5 DUP3 SUB PUSH1 0xC0 DUP7 ADD MSTORE PUSH2 0x2826 DUP3 DUP3 PUSH2 0x2734 JUMP JUMPDEST SWAP2 POP POP DUP1 SWAP2 POP POP SWAP3 SWAP2 POP POP JUMP JUMPDEST PUSH1 0x0 PUSH1 0x80 DUP4 ADD PUSH1 0x0 DUP4 ADD MLOAD PUSH2 0x284B PUSH1 0x0 DUP7 ADD DUP3 PUSH2 0x1BEB JUMP JUMPDEST POP PUSH1 0x20 DUP4 ADD MLOAD PUSH2 0x285E PUSH1 0x20 DUP7 ADD DUP3 PUSH2 0x1BEB JUMP JUMPDEST POP PUSH1 0x40 DUP4 ADD MLOAD PUSH2 0x2871 PUSH1 0x40 DUP7 ADD DUP3 PUSH2 0x1BEB JUMP JUMPDEST POP PUSH1 0x60 DUP4 ADD MLOAD DUP5 DUP3 SUB PUSH1 0x60 DUP7 ADD MSTORE PUSH2 0x2889 DUP3 DUP3 PUSH2 0x276D JUMP JUMPDEST SWAP2 POP POP DUP1 SWAP2 POP POP SWAP3 SWAP2 POP POP JUMP JUMPDEST PUSH1 0x0 PUSH1 0x20 DUP3 ADD SWAP1 POP DUP2 DUP2 SUB PUSH1 0x0 DUP4 ADD MSTORE PUSH2 0x28B0 DUP2 DUP5 PUSH2 0x2833 JUMP JUMPDEST SWAP1 POP SWAP3 SWAP2 POP POP JUMP JUMPDEST PUSH1 0x0 DUP2 MLOAD SWAP1 POP SWAP2 SWAP1 POP JUMP JUMPDEST PUSH1 0x0 DUP3 DUP3 MSTORE PUSH1 0x20 DUP3 ADD SWAP1 POP SWAP3 SWAP2 POP POP JUMP JUMPDEST PUSH1 0x0 PUSH2 0x28DF DUP3 PUSH2 0x28B8 JUMP JUMPDEST PUSH2 0x28E9 DUP2 DUP6 PUSH2 0x28C3 JUMP JUMPDEST SWAP4 POP PUSH2 0x28F9 DUP2 DUP6 PUSH1 0x20 DUP7 ADD PUSH2 0x15E5 JUMP JUMPDEST PUSH2 0x2902 DUP2 PUSH2 0x160F JUMP JUMPDEST DUP5 ADD SWAP2 POP POP SWAP3 SWAP2 POP POP JUMP JUMPDEST PUSH1 0x0 PUSH1 0x20 DUP3 ADD SWAP1 POP DUP2 DUP2 SUB PUSH1 0x0 DUP4 ADD MSTORE PUSH2 0x2927 DUP2 DUP5 PUSH2 0x28D4 JUMP JUMPDEST SWAP1 POP SWAP3 SWAP2 POP POP JUMP JUMPDEST PUSH1 0x0 DUP2 PUSH1 0x60 SHL SWAP1 POP SWAP2 SWAP1 POP JUMP JUMPDEST PUSH1 0x0 PUSH2 0x2947 DUP3 PUSH2 0x292F JUMP JUMPDEST SWAP1 POP SWAP2 SWAP1 POP JUMP JUMPDEST PUSH1 0x0 PUSH2 0x2959 DUP3 PUSH2 0x293C JUMP JUMPDEST SWAP1 POP SWAP2 SWAP1 POP JUMP JUMPDEST PUSH2 0x2971 PUSH2 0x296C DUP3 PUSH2 0x173F JUMP JUMPDEST PUSH2 0x294E JUMP JUMPDEST DUP3 MSTORE POP POP JUMP JUMPDEST PUSH1 0x0 DUP2 SWAP1 POP SWAP2 SWAP1 POP JUMP JUMPDEST PUSH2 0x2992 PUSH2 0x298D DUP3 PUSH2 0x2396 JUMP JUMPDEST PUSH2 0x2977 JUMP JUMPDEST DUP3 MSTORE POP POP JUMP JUMPDEST PUSH1 0x0 PUSH2 0x29A4 DUP3 DUP8 PUSH2 0x2960 JUMP JUMPDEST PUSH1 0x14 DUP3 ADD SWAP2 POP PUSH2 0x29B4 DUP3 DUP7 PUSH2 0x268A JUMP JUMPDEST SWAP2 POP PUSH2 0x29C0 DUP3 DUP6 PUSH2 0x268A JUMP JUMPDEST SWAP2 POP PUSH2 0x29CC DUP3 DUP5 PUSH2 0x2981 JUMP JUMPDEST PUSH1 0x20 DUP3 ADD SWAP2 POP DUP2 SWAP1 POP SWAP6 SWAP5 POP POP POP POP POP JUMP JUMPDEST PUSH1 0x0 PUSH1 0x40 DUP3 ADD SWAP1 POP DUP2 DUP2 SUB PUSH1 0x0 DUP4 ADD MSTORE PUSH2 0x29F8 DUP2 DUP6 PUSH2 0x1620 JUMP JUMPDEST SWAP1 POP PUSH2 0x2A07 PUSH1 0x20 DUP4 ADD DUP5 PUSH2 0x167B JUMP JUMPDEST SWAP4 SWAP3 POP POP POP JUMP JUMPDEST PUSH32 0x416363657373206772616E7465642120596F757220547769747465722049443A PUSH1 0x0 DUP3 ADD MSTORE PUSH32 0x2000000000000000000000000000000000000000000000000000000000000000 PUSH1 0x20 DUP3 ADD MSTORE POP JUMP JUMPDEST PUSH1 0x0 PUSH2 0x2A6A PUSH1 0x21 DUP4 PUSH2 0x2633 JUMP JUMPDEST SWAP2 POP PUSH2 0x2A75 DUP3 PUSH2 0x2A0E JUMP JUMPDEST PUSH1 0x21 DUP3 ADD SWAP1 POP SWAP2 SWAP1 POP JUMP JUMPDEST PUSH1 0x0 DUP2 SLOAD PUSH2 0x2A8D DUP2 PUSH2 0x1A8E JUMP JUMPDEST PUSH2 0x2A97 DUP2 DUP7 PUSH2 0x2633 JUMP JUMPDEST SWAP5 POP PUSH1 0x1 DUP3 AND PUSH1 0x0 DUP2 EQ PUSH2 0x2AB2 JUMPI PUSH1 0x1 DUP2 EQ PUSH2 0x2AC7 JUMPI PUSH2 0x2AFA JUMP JUMPDEST PUSH1 0xFF NOT DUP4 AND DUP7 MSTORE DUP2 ISZERO ISZERO DUP3 MUL DUP7 ADD SWAP4 POP PUSH2 0x2AFA JUMP JUMPDEST PUSH2 0x2AD0 DUP6 PUSH2 0x2312 JUMP JUMPDEST PUSH1 0x0 JUMPDEST DUP4 DUP2 LT ISZERO PUSH2 0x2AF2 JUMPI DUP2 SLOAD DUP2 DUP10 ADD MSTORE PUSH1 0x1 DUP3 ADD SWAP2 POP PUSH1 0x20 DUP2 ADD SWAP1 POP PUSH2 0x2AD3 JUMP JUMPDEST DUP4 DUP9 ADD SWAP6 POP POP POP JUMPDEST POP POP POP SWAP3 SWAP2 POP POP JUMP JUMPDEST PUSH1 0x0 PUSH2 0x2B0E DUP3 PUSH2 0x2A5D JUMP JUMPDEST SWAP2 POP PUSH2 0x2B1A DUP3 DUP5 PUSH2 0x2A80 JUMP JUMPDEST SWAP2 POP DUP2 SWAP1 POP SWAP3 SWAP2 POP POP JUMP INVALID LOG2 PUSH5 0x6970667358 0x22 SLT KECCAK256 MSTORE NOT BYTE SDIV 0xD9 DUP16 0xD1 SWAP7 0xA7 EXP 0xD2 STATICCALL PUSH30 0x1AA7F8CF0B1C1852C859A00F9D342F55BF411264736F6C63430008140033 "},"methodIdentifiers":{"WEB2JSON_ATTESTATION_TYPE()":"1dd6aec2","fdcHub()":"8010fcaf","fdcVerification()":"3ad6d516","getUserTwitterId(address)":"42fe69d4","isUserVerified(address)":"ace417e0","owner()":"8da5cb5b","renounceOwnership()":"715018a6","requestIdToTweetId(bytes32)":"1d738726","requestIdToUser(bytes32)":"d539cb99","requestVerification(string,string)":"4de2bfbf","restrictedFunction()":"777acf37","revokeVerification()":"c33dc916","submitVerification(bytes32,(bytes32[],(bytes32,bytes32,uint64,uint64,(string,string,string,string,string,string,string),(bytes))))":"1687d9a6","transferOwnership(address)":"f2fde38b","userTwitterIds(address)":"cc2125bb","verifiedUsers(address)":"e35fe366"}}}}}